{
  "contractName": "PouchToken",
  "abi": [
    {
      "anonymous": false,
      "inputs": [
        {
          "indexed": true,
          "internalType": "address",
          "name": "_owner",
          "type": "address"
        },
        {
          "indexed": true,
          "internalType": "address",
          "name": "_spender",
          "type": "address"
        },
        {
          "indexed": false,
          "internalType": "uint256",
          "name": "_value",
          "type": "uint256"
        }
      ],
      "name": "Approval",
      "type": "event"
    },
    {
      "anonymous": false,
      "inputs": [
        {
          "indexed": true,
          "internalType": "address",
          "name": "_from",
          "type": "address"
        },
        {
          "indexed": true,
          "internalType": "address",
          "name": "_to",
          "type": "address"
        },
        {
          "indexed": false,
          "internalType": "uint256",
          "name": "_value",
          "type": "uint256"
        }
      ],
      "name": "Transfer",
      "type": "event"
    },
    {
      "constant": true,
      "inputs": [],
      "name": "DEPOSIT_TYPEHASH",
      "outputs": [
        {
          "internalType": "bytes32",
          "name": "",
          "type": "bytes32"
        }
      ],
      "payable": false,
      "stateMutability": "view",
      "type": "function"
    },
    {
      "constant": true,
      "inputs": [],
      "name": "DOMAIN_SEPARATOR",
      "outputs": [
        {
          "internalType": "bytes32",
          "name": "",
          "type": "bytes32"
        }
      ],
      "payable": false,
      "stateMutability": "view",
      "type": "function"
    },
    {
      "constant": true,
      "inputs": [],
      "name": "ImplementationAddress",
      "outputs": [
        {
          "internalType": "address",
          "name": "",
          "type": "address"
        }
      ],
      "payable": false,
      "stateMutability": "view",
      "type": "function"
    },
    {
      "constant": true,
      "inputs": [],
      "name": "PERMIT_TYPEHASH",
      "outputs": [
        {
          "internalType": "bytes32",
          "name": "",
          "type": "bytes32"
        }
      ],
      "payable": false,
      "stateMutability": "view",
      "type": "function"
    },
    {
      "constant": true,
      "inputs": [],
      "name": "admin",
      "outputs": [
        {
          "internalType": "address",
          "name": "",
          "type": "address"
        }
      ],
      "payable": false,
      "stateMutability": "view",
      "type": "function"
    },
    {
      "constant": true,
      "inputs": [
        {
          "internalType": "address",
          "name": "",
          "type": "address"
        },
        {
          "internalType": "address",
          "name": "",
          "type": "address"
        }
      ],
      "name": "allowed",
      "outputs": [
        {
          "internalType": "uint256",
          "name": "",
          "type": "uint256"
        }
      ],
      "payable": false,
      "stateMutability": "view",
      "type": "function"
    },
    {
      "constant": true,
      "inputs": [
        {
          "internalType": "address",
          "name": "",
          "type": "address"
        }
      ],
      "name": "balances",
      "outputs": [
        {
          "internalType": "uint256",
          "name": "",
          "type": "uint256"
        }
      ],
      "payable": false,
      "stateMutability": "view",
      "type": "function"
    },
    {
      "constant": true,
      "inputs": [],
      "name": "decimals",
      "outputs": [
        {
          "internalType": "uint8",
          "name": "",
          "type": "uint8"
        }
      ],
      "payable": false,
      "stateMutability": "view",
      "type": "function"
    },
    {
      "constant": true,
      "inputs": [],
      "name": "name",
      "outputs": [
        {
          "internalType": "string",
          "name": "",
          "type": "string"
        }
      ],
      "payable": false,
      "stateMutability": "view",
      "type": "function"
    },
    {
      "constant": true,
      "inputs": [
        {
          "internalType": "address",
          "name": "",
          "type": "address"
        }
      ],
      "name": "nonces",
      "outputs": [
        {
          "internalType": "uint256",
          "name": "",
          "type": "uint256"
        }
      ],
      "payable": false,
      "stateMutability": "view",
      "type": "function"
    },
    {
      "constant": true,
      "inputs": [],
      "name": "totalSupply",
      "outputs": [
        {
          "internalType": "uint256",
          "name": "",
          "type": "uint256"
        }
      ],
      "payable": false,
      "stateMutability": "view",
      "type": "function"
    },
    {
      "constant": true,
      "inputs": [],
      "name": "version",
      "outputs": [
        {
          "internalType": "string",
          "name": "",
          "type": "string"
        }
      ],
      "payable": false,
      "stateMutability": "view",
      "type": "function"
    },
    {
      "constant": false,
      "inputs": [
        {
          "internalType": "address",
          "name": "_to",
          "type": "address"
        },
        {
          "internalType": "uint256",
          "name": "_value",
          "type": "uint256"
        }
      ],
      "name": "transfer",
      "outputs": [
        {
          "internalType": "bool",
          "name": "success",
          "type": "bool"
        }
      ],
      "payable": false,
      "stateMutability": "nonpayable",
      "type": "function"
    },
    {
      "constant": false,
      "inputs": [
        {
          "internalType": "address",
          "name": "_from",
          "type": "address"
        },
        {
          "internalType": "address",
          "name": "_to",
          "type": "address"
        },
        {
          "internalType": "uint256",
          "name": "_value",
          "type": "uint256"
        }
      ],
      "name": "transferFrom",
      "outputs": [
        {
          "internalType": "bool",
          "name": "success",
          "type": "bool"
        }
      ],
      "payable": false,
      "stateMutability": "nonpayable",
      "type": "function"
    },
    {
      "constant": true,
      "inputs": [
        {
          "internalType": "address",
          "name": "_owner",
          "type": "address"
        }
      ],
      "name": "balanceOf",
      "outputs": [
        {
          "internalType": "uint256",
          "name": "balance",
          "type": "uint256"
        }
      ],
      "payable": false,
      "stateMutability": "view",
      "type": "function"
    },
    {
      "constant": false,
      "inputs": [
        {
          "internalType": "address",
          "name": "_spender",
          "type": "address"
        },
        {
          "internalType": "uint256",
          "name": "_value",
          "type": "uint256"
        }
      ],
      "name": "approve",
      "outputs": [
        {
          "internalType": "bool",
          "name": "success",
          "type": "bool"
        }
      ],
      "payable": false,
      "stateMutability": "nonpayable",
      "type": "function"
    },
    {
      "constant": true,
      "inputs": [
        {
          "internalType": "address",
          "name": "_owner",
          "type": "address"
        },
        {
          "internalType": "address",
          "name": "_spender",
          "type": "address"
        }
      ],
      "name": "allowance",
      "outputs": [
        {
          "internalType": "uint256",
          "name": "remaining",
          "type": "uint256"
        }
      ],
      "payable": false,
      "stateMutability": "view",
      "type": "function"
    },
    {
      "constant": false,
      "inputs": [
        {
          "internalType": "address",
          "name": "holder",
          "type": "address"
        },
        {
          "internalType": "address",
          "name": "spender",
          "type": "address"
        },
        {
          "internalType": "uint256",
          "name": "nonce",
          "type": "uint256"
        },
        {
          "internalType": "uint256",
          "name": "expiry",
          "type": "uint256"
        },
        {
          "internalType": "bool",
          "name": "isAllowed",
          "type": "bool"
        },
        {
          "internalType": "uint8",
          "name": "v",
          "type": "uint8"
        },
        {
          "internalType": "bytes32",
          "name": "r",
          "type": "bytes32"
        },
        {
          "internalType": "bytes32",
          "name": "s",
          "type": "bytes32"
        }
      ],
      "name": "permitted",
      "outputs": [],
      "payable": false,
      "stateMutability": "nonpayable",
      "type": "function"
    },
    {
      "constant": true,
      "inputs": [],
      "name": "supplyOf",
      "outputs": [
        {
          "internalType": "uint256",
          "name": "balance",
          "type": "uint256"
        }
      ],
      "payable": false,
      "stateMutability": "view",
      "type": "function"
    }
  ],
  "bytecode": "0x608060405273e7bc397dbd069fc7d0109c0636d06888bb50668c600560006101000a81548173ffffffffffffffffffffffffffffffffffffffff021916908373ffffffffffffffffffffffffffffffffffffffff160217905550600560009054906101000a900473ffffffffffffffffffffffffffffffffffffffff16600660006101000a81548173ffffffffffffffffffffffffffffffffffffffff021916908373ffffffffffffffffffffffffffffffffffffffff160217905550734f96fe3b7a6cf9725f59d353f723c1bdb64ca6aa600760006101000a81548173ffffffffffffffffffffffffffffffffffffffff021916908373ffffffffffffffffffffffffffffffffffffffff160217905550600760009054906101000a900473ffffffffffffffffffffffffffffffffffffffff16600860006101000a81548173ffffffffffffffffffffffffffffffffffffffff021916908373ffffffffffffffffffffffffffffffffffffffff16021790555034801561018057600080fd5b5061172b806101906000396000f3fe608060405234801561001057600080fd5b50600436106101215760003560e01c8063523a50d0116100ad57806397fb16cc1161007157806397fb16cc14610336578063a9059cbb14610352578063dd62ed3e14610382578063e8a667de146103b2578063f851a440146103d057610121565b8063523a50d01461026a57806354fd4d50146102885780635c658165146102a657806370a08231146102d65780637ecebe001461030657610121565b806327e235e3116100f457806327e235e3146101c257806330adf81f146101f2578063313ce567146102105780633644e5151461022e57806348825e941461024c57610121565b806306fdde0314610126578063095ea7b31461014457806318160ddd1461017457806323b872dd14610192575b600080fd5b61012e6103ee565b60405161013b91906114c9565b60405180910390f35b61015e60048036036101599190810190611068565b610427565b60405161016b91906113ed565b60405180910390f35b61017c610519565b604051610189919061156b565b60405180910390f35b6101ac60048036036101a79190810190610f67565b61051f565b6040516101b991906113ed565b60405180910390f35b6101dc60048036036101d79190810190610f02565b6107b7565b6040516101e9919061156b565b60405180910390f35b6101fa6107cf565b6040516102079190611408565b60405180910390f35b6102186107e6565b6040516102259190611586565b60405180910390f35b6102366107eb565b6040516102439190611408565b60405180910390f35b6102546107f1565b6040516102619190611408565b60405180910390f35b610272610808565b60405161027f919061156b565b60405180910390f35b610290610811565b60405161029d91906114c9565b60405180910390f35b6102c060048036036102bb9190810190610f2b565b61084a565b6040516102cd919061156b565b60405180910390f35b6102f060048036036102eb9190810190610f02565b61086f565b6040516102fd919061156b565b60405180910390f35b610320600480360361031b9190810190610f02565b6108b8565b60405161032d919061156b565b60405180910390f35b610350600480360361034b9190810190610fb6565b6108d0565b005b61036c60048036036103679190810190611068565b610c6f565b60405161037991906113ed565b60405180910390f35b61039c60048036036103979190810190610f2b565b610dc6565b6040516103a9919061156b565b60405180910390f35b6103ba610e4d565b6040516103c791906113d2565b60405180910390f35b6103d8610e73565b6040516103e591906113d2565b60405180910390f35b6040518060400160405280600b81526020017f506f75636820546f6b656e00000000000000000000000000000000000000000081525081565b600081600260003373ffffffffffffffffffffffffffffffffffffffff1673ffffffffffffffffffffffffffffffffffffffff16815260200190815260200160002060008573ffffffffffffffffffffffffffffffffffffffff1673ffffffffffffffffffffffffffffffffffffffff168152602001908152602001600020819055508273ffffffffffffffffffffffffffffffffffffffff163373ffffffffffffffffffffffffffffffffffffffff167f8c5be1e5ebec7d5bd14f71427d1e84f3dd0314c0f7b2291e5b200ac8c7c3b92584604051610507919061156b565b60405180910390a36001905092915050565b60005481565b600080600260008673ffffffffffffffffffffffffffffffffffffffff1673ffffffffffffffffffffffffffffffffffffffff16815260200190815260200160002060003373ffffffffffffffffffffffffffffffffffffffff1673ffffffffffffffffffffffffffffffffffffffff16815260200190815260200160002054905082600160008773ffffffffffffffffffffffffffffffffffffffff1673ffffffffffffffffffffffffffffffffffffffff16815260200190815260200160002054101580156105f05750828110155b6105f957600080fd5b82600160008673ffffffffffffffffffffffffffffffffffffffff1673ffffffffffffffffffffffffffffffffffffffff1681526020019081526020016000206000828254019250508190555082600160008773ffffffffffffffffffffffffffffffffffffffff1673ffffffffffffffffffffffffffffffffffffffff168152602001908152602001600020600082825403925050819055507fffffffffffffffffffffffffffffffffffffffffffffffffffffffffffffffff8110156107465782600260008773ffffffffffffffffffffffffffffffffffffffff1673ffffffffffffffffffffffffffffffffffffffff16815260200190815260200160002060003373ffffffffffffffffffffffffffffffffffffffff1673ffffffffffffffffffffffffffffffffffffffff168152602001908152602001600020600082825403925050819055505b8373ffffffffffffffffffffffffffffffffffffffff168573ffffffffffffffffffffffffffffffffffffffff167fddf252ad1be2c89b69c2b068fc378daa952ba7f163c4a11628f55a4df523b3ef856040516107a3919061156b565b60405180910390a360019150509392505050565b60016020528060005260406000206000915090505481565b6040516107db906113bd565b604051809103902081565b601281565b60035481565b6040516107fd90611371565b604051809103902081565b60008054905090565b6040518060400160405280600181526020017f310000000000000000000000000000000000000000000000000000000000000081525081565b6002602052816000526040600020602052806000526040600020600091509150505481565b6000600160008373ffffffffffffffffffffffffffffffffffffffff1673ffffffffffffffffffffffffffffffffffffffff168152602001908152602001600020549050919050565b60096020528060005260406000206000915090505481565b60006003546040516108e1906113bd565b60405180910390208a8a8a8a8a60405160200161090396959493929190611423565b6040516020818303038152906040528051906020012060405160200161092a929190611386565b604051602081830303815290604052805190602001209050600073ffffffffffffffffffffffffffffffffffffffff168973ffffffffffffffffffffffffffffffffffffffff1614156109b2576040517f08c379a00000000000000000000000000000000000000000000000000000000081526004016109a99061152b565b60405180910390fd5b600181858585604051600081526020016040526040516109d59493929190611484565b6020604051602081039080840390855afa1580156109f7573d6000803e3d6000fd5b5050506020604051035173ffffffffffffffffffffffffffffffffffffffff168973ffffffffffffffffffffffffffffffffffffffff1614610a6e576040517f08c379a0000000000000000000000000000000000000000000000000000000008152600401610a659061154b565b60405180910390fd5b6000861480610a7d5750854211155b610abc576040517f08c379a0000000000000000000000000000000000000000000000000000000008152600401610ab3906114eb565b60405180910390fd5b600960008a73ffffffffffffffffffffffffffffffffffffffff1673ffffffffffffffffffffffffffffffffffffffff1681526020019081526020016000206000815480929190600101919050558714610b4b576040517f08c379a0000000000000000000000000000000000000000000000000000000008152600401610b429061150b565b60405180910390fd5b600085610b59576000610b7b565b7fffffffffffffffffffffffffffffffffffffffffffffffffffffffffffffffff5b905080600260008c73ffffffffffffffffffffffffffffffffffffffff1673ffffffffffffffffffffffffffffffffffffffff16815260200190815260200160002060008b73ffffffffffffffffffffffffffffffffffffffff1673ffffffffffffffffffffffffffffffffffffffff168152602001908152602001600020819055508873ffffffffffffffffffffffffffffffffffffffff168a73ffffffffffffffffffffffffffffffffffffffff167f8c5be1e5ebec7d5bd14f71427d1e84f3dd0314c0f7b2291e5b200ac8c7c3b92583604051610c5b919061156b565b60405180910390a350505050505050505050565b600081600160003373ffffffffffffffffffffffffffffffffffffffff1673ffffffffffffffffffffffffffffffffffffffff168152602001908152602001600020541015610cbd57600080fd5b81600160003373ffffffffffffffffffffffffffffffffffffffff1673ffffffffffffffffffffffffffffffffffffffff1681526020019081526020016000206000828254039250508190555081600160008573ffffffffffffffffffffffffffffffffffffffff1673ffffffffffffffffffffffffffffffffffffffff168152602001908152602001600020600082825401925050819055508273ffffffffffffffffffffffffffffffffffffffff163373ffffffffffffffffffffffffffffffffffffffff167fddf252ad1be2c89b69c2b068fc378daa952ba7f163c4a11628f55a4df523b3ef84604051610db4919061156b565b60405180910390a36001905092915050565b6000600260008473ffffffffffffffffffffffffffffffffffffffff1673ffffffffffffffffffffffffffffffffffffffff16815260200190815260200160002060008373ffffffffffffffffffffffffffffffffffffffff1673ffffffffffffffffffffffffffffffffffffffff16815260200190815260200160002054905092915050565b600a60009054906101000a900473ffffffffffffffffffffffffffffffffffffffff1681565b600460009054906101000a900473ffffffffffffffffffffffffffffffffffffffff1681565b600081359050610ea881611675565b92915050565b600081359050610ebd8161168c565b92915050565b600081359050610ed2816116a3565b92915050565b600081359050610ee7816116ba565b92915050565b600081359050610efc816116d1565b92915050565b600060208284031215610f1457600080fd5b6000610f2284828501610e99565b91505092915050565b60008060408385031215610f3e57600080fd5b6000610f4c85828601610e99565b9250506020610f5d85828601610e99565b9150509250929050565b600080600060608486031215610f7c57600080fd5b6000610f8a86828701610e99565b9350506020610f9b86828701610e99565b9250506040610fac86828701610ed8565b9150509250925092565b600080600080600080600080610100898b031215610fd357600080fd5b6000610fe18b828c01610e99565b9850506020610ff28b828c01610e99565b97505060406110038b828c01610ed8565b96505060606110148b828c01610ed8565b95505060806110258b828c01610eae565b94505060a06110368b828c01610eed565b93505060c06110478b828c01610ec3565b92505060e06110588b828c01610ec3565b9150509295985092959890939650565b6000806040838503121561107b57600080fd5b600061108985828601610e99565b925050602061109a85828601610ed8565b9150509250929050565b6110ad816115c8565b82525050565b6110bc816115da565b82525050565b6110cb816115e6565b82525050565b6110e26110dd826115e6565b61165a565b82525050565b60006110f3826115a1565b6110fd81856115ac565b935061110d818560208601611627565b61111681611664565b840191505092915050565b600061112e6012836115ac565b91507f4461692f7065726d69742d6578706972656400000000000000000000000000006000830152602082019050919050565b600061116e6025836115bd565b91507f4465706f736974286164647265737320686f6c6465722c75696e74323536207660008301527f616c7565290000000000000000000000000000000000000000000000000000006020830152602582019050919050565b60006111d46002836115bd565b91507f19010000000000000000000000000000000000000000000000000000000000006000830152600282019050919050565b60006112146011836115ac565b91507f4461692f696e76616c69642d6e6f6e63650000000000000000000000000000006000830152602082019050919050565b60006112546015836115ac565b91507f4461692f696e76616c69642d616464726573732d3000000000000000000000006000830152602082019050919050565b60006112946052836115bd565b91507f5065726d6974286164647265737320686f6c6465722c6164647265737320737060008301527f656e6465722c75696e74323536206e6f6e63652c75696e74323536206578706960208301527f72792c626f6f6c206973416c6c6f7765642900000000000000000000000000006040830152605282019050919050565b60006113206012836115ac565b91507f4461692f696e76616c69642d7065726d697400000000000000000000000000006000830152602082019050919050565b61135c81611610565b82525050565b61136b8161161a565b82525050565b600061137c82611161565b9150819050919050565b6000611391826111c7565b915061139d82856110d1565b6020820191506113ad82846110d1565b6020820191508190509392505050565b60006113c882611287565b9150819050919050565b60006020820190506113e760008301846110a4565b92915050565b600060208201905061140260008301846110b3565b92915050565b600060208201905061141d60008301846110c2565b92915050565b600060c08201905061143860008301896110c2565b61144560208301886110a4565b61145260408301876110a4565b61145f6060830186611353565b61146c6080830185611353565b61147960a08301846110b3565b979650505050505050565b600060808201905061149960008301876110c2565b6114a66020830186611362565b6114b360408301856110c2565b6114c060608301846110c2565b95945050505050565b600060208201905081810360008301526114e381846110e8565b905092915050565b6000602082019050818103600083015261150481611121565b9050919050565b6000602082019050818103600083015261152481611207565b9050919050565b6000602082019050818103600083015261154481611247565b9050919050565b6000602082019050818103600083015261156481611313565b9050919050565b60006020820190506115806000830184611353565b92915050565b600060208201905061159b6000830184611362565b92915050565b600081519050919050565b600082825260208201905092915050565b600081905092915050565b60006115d3826115f0565b9050919050565b60008115159050919050565b6000819050919050565b600073ffffffffffffffffffffffffffffffffffffffff82169050919050565b6000819050919050565b600060ff82169050919050565b60005b8381101561164557808201518184015260208101905061162a565b83811115611654576000848401525b50505050565b6000819050919050565b6000601f19601f8301169050919050565b61167e816115c8565b811461168957600080fd5b50565b611695816115da565b81146116a057600080fd5b50565b6116ac816115e6565b81146116b757600080fd5b50565b6116c381611610565b81146116ce57600080fd5b50565b6116da8161161a565b81146116e557600080fd5b5056fea365627a7a723158207168351ba60db9539aec9cc6b098083e64f972098b2312ac1764f2c28bbaa1716c6578706572696d656e74616cf564736f6c63430005100040",
  "source": "pragma solidity >=0.5.0;\r\npragma experimental ABIEncoderV2;\r\n\r\nimport \"./TokenInterface.sol\";\r\nimport \"./cTokenInterface.sol\";\r\nimport \"./PTokenInterface.sol\";\r\n\r\ncontract PouchToken is PTokenInterface {\r\n    uint256 public totalSupply;\r\n    mapping(address => uint256) public balances;\r\n    mapping(address => mapping(address => uint256)) public allowed;\r\n    bytes32 public DOMAIN_SEPARATOR;\r\n    address public admin;\r\n    address cDaiAddress = 0xe7bc397DBd069fC7d0109C0636d06888bb50668c;\r\n    cTokenInterface cDai = cTokenInterface(cDaiAddress);\r\n    address daiAddress = 0x4F96Fe3b7A6Cf9725f59d353F723c1bDb64CA6Aa;\r\n    TokenInterface daiToken = TokenInterface(daiAddress);\r\n    bytes32 public constant DEPOSIT_TYPEHASH = keccak256(\r\n        \"Deposit(address holder,uint256 value)\"\r\n    );\r\n\r\n    mapping(address => uint256) public nonces;\r\n    bytes32 public constant PERMIT_TYPEHASH = keccak256(\r\n        \"Permit(address holder,address spender,uint256 nonce,uint256 expiry,bool isAllowed)\"\r\n    );\r\n    address public ImplementationAddress;\r\n    uint256 private constant MAX_UINT256 = uint256(-1);\r\n\r\n    // --- ERC20 Data ---\r\n    string public constant name = \"Pouch Token\";\r\n    string public constant version = \"1\";\r\n    uint8 public constant decimals = 18;\r\n\r\n    // ** ERC-20 Standard Functions **\r\n\r\n    function transfer(address _to, uint256 _value)\r\n        external\r\n        returns (bool success)\r\n    {\r\n        require(balances[msg.sender] >= _value);\r\n        balances[msg.sender] -= _value;\r\n        balances[_to] += _value;\r\n        emit Transfer(msg.sender, _to, _value);\r\n        return true;\r\n    }\r\n\r\n    function transferFrom(address _from, address _to, uint256 _value)\r\n        external\r\n        returns (bool success)\r\n    {\r\n        uint256 allowance = allowed[_from][msg.sender];\r\n        require(balances[_from] >= _value && allowance >= _value);\r\n        balances[_to] += _value;\r\n        balances[_from] -= _value;\r\n        if (allowance < MAX_UINT256) {\r\n            allowed[_from][msg.sender] -= _value;\r\n        }\r\n        emit Transfer(_from, _to, _value);\r\n        return true;\r\n    }\r\n\r\n    function balanceOf(address _owner) external view returns (uint256 balance) {\r\n        return balances[_owner];\r\n    }\r\n\r\n    function approve(address _spender, uint256 _value)\r\n        external\r\n        returns (bool success)\r\n    {\r\n        allowed[msg.sender][_spender] = _value;\r\n        emit Approval(msg.sender, _spender, _value);\r\n        return true;\r\n    }\r\n\r\n    function allowance(address _owner, address _spender)\r\n        external\r\n        view\r\n        returns (uint256 remaining)\r\n    {\r\n        return allowed[_owner][_spender];\r\n    }\r\n\r\n    // --- Approve by signature ---\r\n    function permitted(\r\n        address holder,\r\n        address spender,\r\n        uint256 nonce,\r\n        uint256 expiry,\r\n        bool isAllowed,\r\n        uint8 v,\r\n        bytes32 r,\r\n        bytes32 s\r\n    ) public {\r\n        bytes32 digest = keccak256(\r\n            abi.encodePacked(\r\n                \"\\x19\\x01\",\r\n                DOMAIN_SEPARATOR,\r\n                keccak256(\r\n                    abi.encode(\r\n                        PERMIT_TYPEHASH,\r\n                        holder,\r\n                        spender,\r\n                        nonce,\r\n                        expiry,\r\n                        isAllowed\r\n                    )\r\n                )\r\n            )\r\n        );\r\n\r\n        require(holder != address(0), \"Dai/invalid-address-0\");\r\n        require(holder == ecrecover(digest, v, r, s), \"Dai/invalid-permit\");\r\n        require(expiry == 0 || now <= expiry, \"Dai/permit-expired\");\r\n        require(nonce == nonces[holder]++, \"Dai/invalid-nonce\");\r\n        uint256 wad = isAllowed ? uint256(-1) : 0;\r\n        allowed[holder][spender] = wad;\r\n        emit Approval(holder, spender, wad);\r\n    }\r\n\r\n    function supplyOf() external view returns (uint256 balance) {\r\n        return totalSupply;\r\n    }\r\n\r\n}\r\n\r\n//  ** Inheritance of Pouch Token to Make Delegate Calls to implementation Contract. **\r\n\r\ncontract PouchDelegate is PouchToken {\r\n    constructor(uint256 _chainId) public {\r\n        DOMAIN_SEPARATOR = keccak256(\r\n            abi.encode(\r\n                keccak256(\r\n                    \"EIP712Domain(string name,string version,uint256 chainId,address verifyingContract)\"\r\n                ),\r\n                keccak256(bytes(name)),\r\n                keccak256(bytes(version)),\r\n                _chainId,\r\n                address(this)\r\n            )\r\n        );\r\n\r\n        admin = msg.sender;\r\n    }\r\n\r\n    // ** Internal Functions **\r\n\r\n    modifier adminOnly() {\r\n        require(msg.sender == admin, \"Restricted Access to Admin Only\");\r\n        _;\r\n    }\r\n\r\n    // ** Update Implementation Address **\r\n    function updateLogic(address _newImplemenationAddress) external adminOnly {\r\n        require(msg.sender == admin, \"Admin Only\");\r\n        ImplementationAddress = _newImplemenationAddress;\r\n    }\r\n\r\n    // ** Delegate Calls **\r\n\r\n    // Internal Delegate Function **\r\n    function _ImplementDelegationCore(\r\n        address _holder,\r\n        uint256 _value,\r\n        bytes32 _r,\r\n        bytes32 _s,\r\n        uint8 _v,\r\n        bytes memory logic\r\n    ) internal returns (bool) {\r\n        (bool status, bytes memory returnedData) = ImplementationAddress\r\n            .delegatecall(\r\n            abi.encodeWithSelector(\r\n                bytes4(keccak256(logic)),\r\n                _holder,\r\n                _value,\r\n                _r,\r\n                _s,\r\n                _v\r\n            )\r\n        );\r\n        require(status);\r\n        return abi.decode(returnedData, (bool));\r\n    }\r\n\r\n    // function deposit(address holder,\r\n    //         uint256 value,\r\n    //         bytes32 r,\r\n    //         bytes32 s,\r\n    //         uint8 v) public returns (bool){\r\n    //           return _ImplementDelegationCore(holder,value,r,s,v, \"deposit(address,uint256,bytes32,bytes32,uint8\");\r\n    //     }\r\n\r\n    function deposit(\r\n        address holder,\r\n        uint256 value,\r\n        bytes32 r,\r\n        bytes32 s,\r\n        uint8 v\r\n    ) public returns (bool) {\r\n        bytes32 digest = keccak256(\r\n            abi.encodePacked(\r\n                \"\\x19\\x01\",\r\n                DOMAIN_SEPARATOR,\r\n                keccak256(abi.encode(DEPOSIT_TYPEHASH, holder, value))\r\n            )\r\n        );\r\n\r\n        require(holder != address(0), \"Pouch/invalid-address-0\");\r\n        require(holder == ecrecover(digest, v, r, s), \"Pouch/invalid-permit\");\r\n\r\n        // ** Check for sufficient Funds **\r\n        uint256 userBalance = daiToken.balanceOf(holder);\r\n        require(userBalance >= value, \"Insufficient Funds\");\r\n\r\n        daiToken.transferFrom(holder, address(this), value); // **Transfer User's DAI**\r\n        balances[holder] += value;\r\n        totalSupply += value;\r\n        emit Transfer(address(0), holder, value); // **Mint PCH tokens for the User**\r\n        daiToken.approve(cDaiAddress, value);\r\n        cDai.mint(value); // **Mint cDai  **\r\n        return true;\r\n    }\r\n\r\n    // function deposit(\r\n    // // address holder,\r\n    //         uint256 value\r\n    //         // bytes32 r,\r\n    //         // bytes32 s,\r\n    //         // uint8 v\r\n    //         ) public returns (bool){\r\n    //           (bool status, bytes memory returnedData) = ImplementationAddress.delegatecall(abi.encodeWithSelector(bytes4(keccak256(\"deposit(uint256)\")) ,value));\r\n    //         require(status);\r\n    //         return abi.decode(returnedData,(bool));\r\n    //     }\r\n\r\n    function withdraw(\r\n        address holder,\r\n        uint256 value,\r\n        bytes32 r,\r\n        bytes32 s,\r\n        uint8 v\r\n    ) public returns (bool) {\r\n        return\r\n            _ImplementDelegationCore(\r\n                holder,\r\n                value,\r\n                r,\r\n                s,\r\n                v,\r\n                \"withdraw(address,uint256,bytes32,bytes32,uint8\"\r\n            );\r\n    }\r\n\r\n    function transact(\r\n        address holder,\r\n        address to,\r\n        uint256 value,\r\n        bytes32 r,\r\n        bytes32 s,\r\n        uint8 v\r\n    ) public returns (bool) {\r\n        (bool status, bytes memory returnedData) = ImplementationAddress\r\n            .delegatecall(\r\n            abi.encodeWithSelector(\r\n                bytes4(\r\n                    keccak256(\r\n                        \"transact(address,address,uint256,bytes32,bytes32,uint8)\"\r\n                    )\r\n                ),\r\n                holder,\r\n                to,\r\n                value,\r\n                r,\r\n                s,\r\n                v\r\n            )\r\n        );\r\n        require(status);\r\n        return abi.decode(returnedData, (bool));\r\n    }\r\n\r\n    function checkProfits() public view adminOnly returns (uint256) {\r\n        (bool status, bytes memory returnedData) = ImplementationAddress\r\n            .staticcall(\r\n            abi.encodeWithSelector(bytes4(keccak256(\"_checkProfits()\")))\r\n        );\r\n        require(status);\r\n        return abi.decode(returnedData, (uint256));\r\n    }\r\n\r\n    function spitProfits() public adminOnly returns (bool) {\r\n        (bool status, bytes memory returnedData) = ImplementationAddress\r\n            .delegatecall(\r\n            abi.encodeWithSelector(bytes4(keccak256(\"_spitProfits()\")))\r\n        );\r\n        require(status);\r\n        return abi.decode(returnedData, (bool));\r\n    }\r\n\r\n    /**\r\n     * @notice Delegates execution to an implementation contract\r\n     * @dev It returns to the external caller whatever the implementation returns or forwards reverts\r\n     */\r\n    // fallback() external  {\r\n\r\n    // // delegate all other functions to current implementation\r\n    // (bool status, ) = ImplementationAddress.delegatecall(msg.data);\r\n    // require(status);\r\n\r\n    // }\r\n\r\n}\r\n",
  "sourcePath": "C:\\Users\\Anubhav\\Documents\\ethonline\\contracts\\singleContract.sol",
  "compiler": {
    "name": "solc",
    "version": "0.5.16+commit.9c3226ce.Emscripten.clang"
  },
  "schemaVersion": "3.0.23",
  "updatedAt": "2020-02-21T13:54:52.440Z",
  "devdoc": {
    "methods": {}
  },
  "userdoc": {
    "methods": {}
  }
}