{
  "contractName": "PouchDelegate",
  "abi": [
    {
      "inputs": [
        {
          "internalType": "uint256",
          "name": "_chainId",
          "type": "uint256"
        }
      ],
      "payable": false,
      "stateMutability": "nonpayable",
      "type": "constructor"
    },
    {
      "anonymous": false,
      "inputs": [
        {
          "indexed": true,
          "internalType": "address",
          "name": "_owner",
          "type": "address"
        },
        {
          "indexed": true,
          "internalType": "address",
          "name": "_spender",
          "type": "address"
        },
        {
          "indexed": false,
          "internalType": "uint256",
          "name": "_value",
          "type": "uint256"
        }
      ],
      "name": "Approval",
      "type": "event"
    },
    {
      "anonymous": false,
      "inputs": [
        {
          "indexed": true,
          "internalType": "address",
          "name": "_from",
          "type": "address"
        },
        {
          "indexed": true,
          "internalType": "address",
          "name": "_to",
          "type": "address"
        },
        {
          "indexed": false,
          "internalType": "uint256",
          "name": "_value",
          "type": "uint256"
        }
      ],
      "name": "Transfer",
      "type": "event"
    },
    {
      "constant": true,
      "inputs": [],
      "name": "DEPOSIT_TYPEHASH",
      "outputs": [
        {
          "internalType": "bytes32",
          "name": "",
          "type": "bytes32"
        }
      ],
      "payable": false,
      "stateMutability": "view",
      "type": "function"
    },
    {
      "constant": true,
      "inputs": [],
      "name": "DOMAIN_SEPARATOR",
      "outputs": [
        {
          "internalType": "bytes32",
          "name": "",
          "type": "bytes32"
        }
      ],
      "payable": false,
      "stateMutability": "view",
      "type": "function"
    },
    {
      "constant": true,
      "inputs": [],
      "name": "ImplementationAddress",
      "outputs": [
        {
          "internalType": "address",
          "name": "",
          "type": "address"
        }
      ],
      "payable": false,
      "stateMutability": "view",
      "type": "function"
    },
    {
      "constant": true,
      "inputs": [],
      "name": "PERMIT_TYPEHASH",
      "outputs": [
        {
          "internalType": "bytes32",
          "name": "",
          "type": "bytes32"
        }
      ],
      "payable": false,
      "stateMutability": "view",
      "type": "function"
    },
    {
      "constant": true,
      "inputs": [],
      "name": "admin",
      "outputs": [
        {
          "internalType": "address",
          "name": "",
          "type": "address"
        }
      ],
      "payable": false,
      "stateMutability": "view",
      "type": "function"
    },
    {
      "constant": true,
      "inputs": [
        {
          "internalType": "address",
          "name": "_owner",
          "type": "address"
        },
        {
          "internalType": "address",
          "name": "_spender",
          "type": "address"
        }
      ],
      "name": "allowance",
      "outputs": [
        {
          "internalType": "uint256",
          "name": "remaining",
          "type": "uint256"
        }
      ],
      "payable": false,
      "stateMutability": "view",
      "type": "function"
    },
    {
      "constant": true,
      "inputs": [
        {
          "internalType": "address",
          "name": "",
          "type": "address"
        },
        {
          "internalType": "address",
          "name": "",
          "type": "address"
        }
      ],
      "name": "allowed",
      "outputs": [
        {
          "internalType": "uint256",
          "name": "",
          "type": "uint256"
        }
      ],
      "payable": false,
      "stateMutability": "view",
      "type": "function"
    },
    {
      "constant": false,
      "inputs": [
        {
          "internalType": "address",
          "name": "_spender",
          "type": "address"
        },
        {
          "internalType": "uint256",
          "name": "_value",
          "type": "uint256"
        }
      ],
      "name": "approve",
      "outputs": [
        {
          "internalType": "bool",
          "name": "success",
          "type": "bool"
        }
      ],
      "payable": false,
      "stateMutability": "nonpayable",
      "type": "function"
    },
    {
      "constant": true,
      "inputs": [
        {
          "internalType": "address",
          "name": "_owner",
          "type": "address"
        }
      ],
      "name": "balanceOf",
      "outputs": [
        {
          "internalType": "uint256",
          "name": "balance",
          "type": "uint256"
        }
      ],
      "payable": false,
      "stateMutability": "view",
      "type": "function"
    },
    {
      "constant": true,
      "inputs": [
        {
          "internalType": "address",
          "name": "",
          "type": "address"
        }
      ],
      "name": "balances",
      "outputs": [
        {
          "internalType": "uint256",
          "name": "",
          "type": "uint256"
        }
      ],
      "payable": false,
      "stateMutability": "view",
      "type": "function"
    },
    {
      "constant": true,
      "inputs": [],
      "name": "decimals",
      "outputs": [
        {
          "internalType": "uint8",
          "name": "",
          "type": "uint8"
        }
      ],
      "payable": false,
      "stateMutability": "view",
      "type": "function"
    },
    {
      "constant": true,
      "inputs": [],
      "name": "name",
      "outputs": [
        {
          "internalType": "string",
          "name": "",
          "type": "string"
        }
      ],
      "payable": false,
      "stateMutability": "view",
      "type": "function"
    },
    {
      "constant": true,
      "inputs": [
        {
          "internalType": "address",
          "name": "",
          "type": "address"
        }
      ],
      "name": "nonces",
      "outputs": [
        {
          "internalType": "uint256",
          "name": "",
          "type": "uint256"
        }
      ],
      "payable": false,
      "stateMutability": "view",
      "type": "function"
    },
    {
      "constant": false,
      "inputs": [
        {
          "internalType": "address",
          "name": "holder",
          "type": "address"
        },
        {
          "internalType": "address",
          "name": "spender",
          "type": "address"
        },
        {
          "internalType": "uint256",
          "name": "nonce",
          "type": "uint256"
        },
        {
          "internalType": "uint256",
          "name": "expiry",
          "type": "uint256"
        },
        {
          "internalType": "bool",
          "name": "isAllowed",
          "type": "bool"
        },
        {
          "internalType": "uint8",
          "name": "v",
          "type": "uint8"
        },
        {
          "internalType": "bytes32",
          "name": "r",
          "type": "bytes32"
        },
        {
          "internalType": "bytes32",
          "name": "s",
          "type": "bytes32"
        }
      ],
      "name": "permitted",
      "outputs": [],
      "payable": false,
      "stateMutability": "nonpayable",
      "type": "function"
    },
    {
      "constant": true,
      "inputs": [],
      "name": "supplyOf",
      "outputs": [
        {
          "internalType": "uint256",
          "name": "balance",
          "type": "uint256"
        }
      ],
      "payable": false,
      "stateMutability": "view",
      "type": "function"
    },
    {
      "constant": true,
      "inputs": [],
      "name": "totalSupply",
      "outputs": [
        {
          "internalType": "uint256",
          "name": "",
          "type": "uint256"
        }
      ],
      "payable": false,
      "stateMutability": "view",
      "type": "function"
    },
    {
      "constant": false,
      "inputs": [
        {
          "internalType": "address",
          "name": "_to",
          "type": "address"
        },
        {
          "internalType": "uint256",
          "name": "_value",
          "type": "uint256"
        }
      ],
      "name": "transfer",
      "outputs": [
        {
          "internalType": "bool",
          "name": "success",
          "type": "bool"
        }
      ],
      "payable": false,
      "stateMutability": "nonpayable",
      "type": "function"
    },
    {
      "constant": false,
      "inputs": [
        {
          "internalType": "address",
          "name": "_from",
          "type": "address"
        },
        {
          "internalType": "address",
          "name": "_to",
          "type": "address"
        },
        {
          "internalType": "uint256",
          "name": "_value",
          "type": "uint256"
        }
      ],
      "name": "transferFrom",
      "outputs": [
        {
          "internalType": "bool",
          "name": "success",
          "type": "bool"
        }
      ],
      "payable": false,
      "stateMutability": "nonpayable",
      "type": "function"
    },
    {
      "constant": true,
      "inputs": [],
      "name": "version",
      "outputs": [
        {
          "internalType": "string",
          "name": "",
          "type": "string"
        }
      ],
      "payable": false,
      "stateMutability": "view",
      "type": "function"
    },
    {
      "constant": false,
      "inputs": [
        {
          "internalType": "address",
          "name": "_newImplemenationAddress",
          "type": "address"
        }
      ],
      "name": "updateLogic",
      "outputs": [],
      "payable": false,
      "stateMutability": "nonpayable",
      "type": "function"
    },
    {
      "constant": false,
      "inputs": [
        {
          "internalType": "address",
          "name": "holder",
          "type": "address"
        },
        {
          "internalType": "uint256",
          "name": "value",
          "type": "uint256"
        },
        {
          "internalType": "bytes32",
          "name": "r",
          "type": "bytes32"
        },
        {
          "internalType": "bytes32",
          "name": "s",
          "type": "bytes32"
        },
        {
          "internalType": "uint8",
          "name": "v",
          "type": "uint8"
        }
      ],
      "name": "deposit",
      "outputs": [
        {
          "internalType": "bool",
          "name": "",
          "type": "bool"
        }
      ],
      "payable": false,
      "stateMutability": "nonpayable",
      "type": "function"
    },
    {
      "constant": false,
      "inputs": [
        {
          "internalType": "address",
          "name": "holder",
          "type": "address"
        },
        {
          "internalType": "uint256",
          "name": "value",
          "type": "uint256"
        },
        {
          "internalType": "bytes32",
          "name": "r",
          "type": "bytes32"
        },
        {
          "internalType": "bytes32",
          "name": "s",
          "type": "bytes32"
        },
        {
          "internalType": "uint8",
          "name": "v",
          "type": "uint8"
        }
      ],
      "name": "withdraw",
      "outputs": [
        {
          "internalType": "bool",
          "name": "",
          "type": "bool"
        }
      ],
      "payable": false,
      "stateMutability": "nonpayable",
      "type": "function"
    },
    {
      "constant": false,
      "inputs": [
        {
          "internalType": "address",
          "name": "holder",
          "type": "address"
        },
        {
          "internalType": "address",
          "name": "to",
          "type": "address"
        },
        {
          "internalType": "uint256",
          "name": "value",
          "type": "uint256"
        },
        {
          "internalType": "bytes32",
          "name": "r",
          "type": "bytes32"
        },
        {
          "internalType": "bytes32",
          "name": "s",
          "type": "bytes32"
        },
        {
          "internalType": "uint8",
          "name": "v",
          "type": "uint8"
        }
      ],
      "name": "transact",
      "outputs": [
        {
          "internalType": "bool",
          "name": "",
          "type": "bool"
        }
      ],
      "payable": false,
      "stateMutability": "nonpayable",
      "type": "function"
    },
    {
      "constant": true,
      "inputs": [],
      "name": "checkProfits",
      "outputs": [
        {
          "internalType": "uint256",
          "name": "",
          "type": "uint256"
        }
      ],
      "payable": false,
      "stateMutability": "view",
      "type": "function"
    },
    {
      "constant": false,
      "inputs": [],
      "name": "spitProfits",
      "outputs": [
        {
          "internalType": "bool",
          "name": "",
          "type": "bool"
        }
      ],
      "payable": false,
      "stateMutability": "nonpayable",
      "type": "function"
    }
  ],
  "bytecode": "0x608060405273e7bc397dbd069fc7d0109c0636d06888bb50668c600560006101000a81548173ffffffffffffffffffffffffffffffffffffffff021916908373ffffffffffffffffffffffffffffffffffffffff160217905550600560009054906101000a900473ffffffffffffffffffffffffffffffffffffffff16600660006101000a81548173ffffffffffffffffffffffffffffffffffffffff021916908373ffffffffffffffffffffffffffffffffffffffff160217905550734f96fe3b7a6cf9725f59d353f723c1bdb64ca6aa600760006101000a81548173ffffffffffffffffffffffffffffffffffffffff021916908373ffffffffffffffffffffffffffffffffffffffff160217905550600760009054906101000a900473ffffffffffffffffffffffffffffffffffffffff16600860006101000a81548173ffffffffffffffffffffffffffffffffffffffff021916908373ffffffffffffffffffffffffffffffffffffffff1602179055503480156200018157600080fd5b5060405162003065380380620030658339818101604052620001a79190810190620002ca565b604051620001b590620003b7565b60405180910390206040518060400160405280600b81526020017f506f75636820546f6b656e000000000000000000000000000000000000000000815250805190602001206040518060400160405280600181526020017f31000000000000000000000000000000000000000000000000000000000000008152508051906020012083306040516020016200024f959493929190620003ce565b6040516020818303038152906040528051906020012060038190555033600460006101000a81548173ffffffffffffffffffffffffffffffffffffffff021916908373ffffffffffffffffffffffffffffffffffffffff1602179055505062000498565b600081519050620002c4816200047e565b92915050565b600060208284031215620002dd57600080fd5b6000620002ed84828501620002b3565b91505092915050565b620003018162000436565b82525050565b62000312816200044a565b82525050565b6000620003276052836200042b565b91507f454950373132446f6d61696e28737472696e67206e616d652c737472696e672060008301527f76657273696f6e2c75696e7432353620636861696e49642c616464726573732060208301527f766572696679696e67436f6e74726163742900000000000000000000000000006040830152605282019050919050565b620003b18162000474565b82525050565b6000620003c48262000318565b9150819050919050565b600060a082019050620003e5600083018862000307565b620003f4602083018762000307565b62000403604083018662000307565b620004126060830185620003a6565b620004216080830184620002f6565b9695505050505050565b600081905092915050565b6000620004438262000454565b9050919050565b6000819050919050565b600073ffffffffffffffffffffffffffffffffffffffff82169050919050565b6000819050919050565b620004898162000474565b81146200049557600080fd5b50565b612bbd80620004a86000396000f3fe608060405234801561001057600080fd5b50600436106101735760003560e01c80635c658165116100de578063a9059cbb11610097578063dd62ed3e11610071578063dd62ed3e1461048c578063e8a667de146104bc578063e99f6374146104da578063f851a4401461050a57610173565b8063a9059cbb1461040e578063d16bc20e1461043e578063d7a8e87b1461046e57610173565b80635c6581651461032857806370a0823114610358578063795e617e146103885780637ecebe00146103a4578063890268f8146103d457806397fb16cc146103f257610173565b806330adf81f1161013057806330adf81f14610274578063313ce567146102925780633644e515146102b057806348825e94146102ce578063523a50d0146102ec57806354fd4d501461030a57610173565b806306fdde0314610178578063095ea7b31461019657806318160ddd146101c6578063197917e7146101e457806323b872dd1461021457806327e235e314610244575b600080fd5b610180610528565b60405161018d9190612877565b60405180910390f35b6101b060048036036101ab9190810190611f55565b610561565b6040516101bd9190612764565b60405180910390f35b6101ce610653565b6040516101db91906129b9565b60405180910390f35b6101fe60048036036101f99190810190611f91565b610659565b60405161020b9190612764565b60405180910390f35b61022e60048036036102299190810190611dcb565b61068c565b60405161023b9190612764565b60405180910390f35b61025e60048036036102599190810190611d66565b610924565b60405161026b91906129b9565b60405180910390f35b61027c61093c565b604051610289919061277f565b60405180910390f35b61029a610953565b6040516102a791906129d4565b60405180910390f35b6102b8610958565b6040516102c5919061277f565b60405180910390f35b6102d661095e565b6040516102e3919061277f565b60405180910390f35b6102f4610975565b60405161030191906129b9565b60405180910390f35b61031261097e565b60405161031f9190612877565b60405180910390f35b610342600480360361033d9190810190611d8f565b6109b7565b60405161034f91906129b9565b60405180910390f35b610372600480360361036d9190810190611d66565b6109dc565b60405161037f91906129b9565b60405180910390f35b6103a2600480360361039d9190810190611d66565b610a25565b005b6103be60048036036103b99190810190611d66565b610b89565b6040516103cb91906129b9565b60405180910390f35b6103dc610ba1565b6040516103e99190612764565b60405180910390f35b61040c60048036036104079190810190611ea3565b610d5e565b005b61042860048036036104239190810190611f55565b6110fd565b6040516104359190612764565b60405180910390f35b61045860048036036104539190810190611e1a565b611254565b6040516104659190612764565b60405180910390f35b61047661139c565b60405161048391906129b9565b60405180910390f35b6104a660048036036104a19190810190611d8f565b611559565b6040516104b391906129b9565b60405180910390f35b6104c46115e0565b6040516104d19190612635565b60405180910390f35b6104f460048036036104ef9190810190611f91565b611606565b6040516105019190612764565b60405180910390f35b610512611b73565b60405161051f9190612635565b60405180910390f35b6040518060400160405280600b81526020017f506f75636820546f6b656e00000000000000000000000000000000000000000081525081565b600081600260003373ffffffffffffffffffffffffffffffffffffffff1673ffffffffffffffffffffffffffffffffffffffff16815260200190815260200160002060008573ffffffffffffffffffffffffffffffffffffffff1673ffffffffffffffffffffffffffffffffffffffff168152602001908152602001600020819055508273ffffffffffffffffffffffffffffffffffffffff163373ffffffffffffffffffffffffffffffffffffffff167f8c5be1e5ebec7d5bd14f71427d1e84f3dd0314c0f7b2291e5b200ac8c7c3b9258460405161064191906129b9565b60405180910390a36001905092915050565b60005481565b600061068186868686866040518060600160405280602e8152602001612b4d602e9139611b99565b905095945050505050565b600080600260008673ffffffffffffffffffffffffffffffffffffffff1673ffffffffffffffffffffffffffffffffffffffff16815260200190815260200160002060003373ffffffffffffffffffffffffffffffffffffffff1673ffffffffffffffffffffffffffffffffffffffff16815260200190815260200160002054905082600160008773ffffffffffffffffffffffffffffffffffffffff1673ffffffffffffffffffffffffffffffffffffffff168152602001908152602001600020541015801561075d5750828110155b61076657600080fd5b82600160008673ffffffffffffffffffffffffffffffffffffffff1673ffffffffffffffffffffffffffffffffffffffff1681526020019081526020016000206000828254019250508190555082600160008773ffffffffffffffffffffffffffffffffffffffff1673ffffffffffffffffffffffffffffffffffffffff168152602001908152602001600020600082825403925050819055507fffffffffffffffffffffffffffffffffffffffffffffffffffffffffffffffff8110156108b35782600260008773ffffffffffffffffffffffffffffffffffffffff1673ffffffffffffffffffffffffffffffffffffffff16815260200190815260200160002060003373ffffffffffffffffffffffffffffffffffffffff1673ffffffffffffffffffffffffffffffffffffffff168152602001908152602001600020600082825403925050819055505b8373ffffffffffffffffffffffffffffffffffffffff168573ffffffffffffffffffffffffffffffffffffffff167fddf252ad1be2c89b69c2b068fc378daa952ba7f163c4a11628f55a4df523b3ef8560405161091091906129b9565b60405180910390a360019150509392505050565b60016020528060005260406000206000915090505481565b604051610948906125f6565b604051809103902081565b601281565b60035481565b60405161096a90612595565b604051809103902081565b60008054905090565b6040518060400160405280600181526020017f310000000000000000000000000000000000000000000000000000000000000081525081565b6002602052816000526040600020602052806000526040600020600091509150505481565b6000600160008373ffffffffffffffffffffffffffffffffffffffff1673ffffffffffffffffffffffffffffffffffffffff168152602001908152602001600020549050919050565b600460009054906101000a900473ffffffffffffffffffffffffffffffffffffffff1673ffffffffffffffffffffffffffffffffffffffff163373ffffffffffffffffffffffffffffffffffffffff1614610ab5576040517f08c379a0000000000000000000000000000000000000000000000000000000008152600401610aac906128b9565b60405180910390fd5b600460009054906101000a900473ffffffffffffffffffffffffffffffffffffffff1673ffffffffffffffffffffffffffffffffffffffff163373ffffffffffffffffffffffffffffffffffffffff1614610b45576040517f08c379a0000000000000000000000000000000000000000000000000000000008152600401610b3c90612919565b60405180910390fd5b80600a60006101000a81548173ffffffffffffffffffffffffffffffffffffffff021916908373ffffffffffffffffffffffffffffffffffffffff16021790555050565b60096020528060005260406000206000915090505481565b6000600460009054906101000a900473ffffffffffffffffffffffffffffffffffffffff1673ffffffffffffffffffffffffffffffffffffffff163373ffffffffffffffffffffffffffffffffffffffff1614610c33576040517f08c379a0000000000000000000000000000000000000000000000000000000008152600401610c2a906128b9565b60405180910390fd5b60006060600a60009054906101000a900473ffffffffffffffffffffffffffffffffffffffff1673ffffffffffffffffffffffffffffffffffffffff16604051610c7c906125e1565b6040518091039020604051602401604051602081830303815290604052907bffffffffffffffffffffffffffffffffffffffffffffffffffffffff19166020820180517bffffffffffffffffffffffffffffffffffffffffffffffffffffffff8381831617835250505050604051610cf4919061257e565b600060405180830381855af49150503d8060008114610d2f576040519150601f19603f3d011682016040523d82523d6000602084013e610d34565b606091505b509150915081610d4357600080fd5b80806020019051610d579190810190612008565b9250505090565b6000600354604051610d6f906125f6565b60405180910390208a8a8a8a8a604051602001610d919695949392919061279a565b60405160208183030381529060405280519060200120604051602001610db89291906125aa565b604051602081830303815290604052805190602001209050600073ffffffffffffffffffffffffffffffffffffffff168973ffffffffffffffffffffffffffffffffffffffff161415610e40576040517f08c379a0000000000000000000000000000000000000000000000000000000008152600401610e3790612939565b60405180910390fd5b60018185858560405160008152602001604052604051610e639493929190612832565b6020604051602081039080840390855afa158015610e85573d6000803e3d6000fd5b5050506020604051035173ffffffffffffffffffffffffffffffffffffffff168973ffffffffffffffffffffffffffffffffffffffff1614610efc576040517f08c379a0000000000000000000000000000000000000000000000000000000008152600401610ef390612999565b60405180910390fd5b6000861480610f0b5750854211155b610f4a576040517f08c379a0000000000000000000000000000000000000000000000000000000008152600401610f4190612899565b60405180910390fd5b600960008a73ffffffffffffffffffffffffffffffffffffffff1673ffffffffffffffffffffffffffffffffffffffff1681526020019081526020016000206000815480929190600101919050558714610fd9576040517f08c379a0000000000000000000000000000000000000000000000000000000008152600401610fd0906128f9565b60405180910390fd5b600085610fe7576000611009565b7fffffffffffffffffffffffffffffffffffffffffffffffffffffffffffffffff5b905080600260008c73ffffffffffffffffffffffffffffffffffffffff1673ffffffffffffffffffffffffffffffffffffffff16815260200190815260200160002060008b73ffffffffffffffffffffffffffffffffffffffff1673ffffffffffffffffffffffffffffffffffffffff168152602001908152602001600020819055508873ffffffffffffffffffffffffffffffffffffffff168a73ffffffffffffffffffffffffffffffffffffffff167f8c5be1e5ebec7d5bd14f71427d1e84f3dd0314c0f7b2291e5b200ac8c7c3b925836040516110e991906129b9565b60405180910390a350505050505050505050565b600081600160003373ffffffffffffffffffffffffffffffffffffffff1673ffffffffffffffffffffffffffffffffffffffff16815260200190815260200160002054101561114b57600080fd5b81600160003373ffffffffffffffffffffffffffffffffffffffff1673ffffffffffffffffffffffffffffffffffffffff1681526020019081526020016000206000828254039250508190555081600160008573ffffffffffffffffffffffffffffffffffffffff1673ffffffffffffffffffffffffffffffffffffffff168152602001908152602001600020600082825401925050819055508273ffffffffffffffffffffffffffffffffffffffff163373ffffffffffffffffffffffffffffffffffffffff167fddf252ad1be2c89b69c2b068fc378daa952ba7f163c4a11628f55a4df523b3ef8460405161124291906129b9565b60405180910390a36001905092915050565b6000806060600a60009054906101000a900473ffffffffffffffffffffffffffffffffffffffff1673ffffffffffffffffffffffffffffffffffffffff1660405161129e90612620565b60405180910390208a8a8a8a8a8a6040516024016112c196959493929190612687565b604051602081830303815290604052907bffffffffffffffffffffffffffffffffffffffffffffffffffffffff19166020820180517bffffffffffffffffffffffffffffffffffffffffffffffffffffffff838183161783525050505060405161132b919061257e565b600060405180830381855af49150503d8060008114611366576040519150601f19603f3d011682016040523d82523d6000602084013e61136b565b606091505b50915091508161137a57600080fd5b8080602001905161138e9190810190612008565b925050509695505050505050565b6000600460009054906101000a900473ffffffffffffffffffffffffffffffffffffffff1673ffffffffffffffffffffffffffffffffffffffff163373ffffffffffffffffffffffffffffffffffffffff161461142e576040517f08c379a0000000000000000000000000000000000000000000000000000000008152600401611425906128b9565b60405180910390fd5b60006060600a60009054906101000a900473ffffffffffffffffffffffffffffffffffffffff1673ffffffffffffffffffffffffffffffffffffffff166040516114779061260b565b6040518091039020604051602401604051602081830303815290604052907bffffffffffffffffffffffffffffffffffffffffffffffffffffffff19166020820180517bffffffffffffffffffffffffffffffffffffffffffffffffffffffff83818316178352505050506040516114ef919061257e565b600060405180830381855afa9150503d806000811461152a576040519150601f19603f3d011682016040523d82523d6000602084013e61152f565b606091505b50915091508161153e57600080fd5b808060200190516115529190810190612031565b9250505090565b6000600260008473ffffffffffffffffffffffffffffffffffffffff1673ffffffffffffffffffffffffffffffffffffffff16815260200190815260200160002060008373ffffffffffffffffffffffffffffffffffffffff1673ffffffffffffffffffffffffffffffffffffffff16815260200190815260200160002054905092915050565b600a60009054906101000a900473ffffffffffffffffffffffffffffffffffffffff1681565b60008060035460405161161890612595565b60405180910390208888604051602001611634939291906127fb565b6040516020818303038152906040528051906020012060405160200161165b9291906125aa565b604051602081830303815290604052805190602001209050600073ffffffffffffffffffffffffffffffffffffffff168773ffffffffffffffffffffffffffffffffffffffff1614156116e3576040517f08c379a00000000000000000000000000000000000000000000000000000000081526004016116da90612959565b60405180910390fd5b600181848787604051600081526020016040526040516117069493929190612832565b6020604051602081039080840390855afa158015611728573d6000803e3d6000fd5b5050506020604051035173ffffffffffffffffffffffffffffffffffffffff168773ffffffffffffffffffffffffffffffffffffffff161461179f576040517f08c379a000000000000000000000000000000000000000000000000000000000815260040161179690612979565b60405180910390fd5b6000600860009054906101000a900473ffffffffffffffffffffffffffffffffffffffff1673ffffffffffffffffffffffffffffffffffffffff166370a08231896040518263ffffffff1660e01b81526004016117fc9190612635565b60206040518083038186803b15801561181457600080fd5b505afa158015611828573d6000803e3d6000fd5b505050506040513d601f19601f8201168201806040525061184c9190810190612031565b905086811015611891576040517f08c379a0000000000000000000000000000000000000000000000000000000008152600401611888906128d9565b60405180910390fd5b600860009054906101000a900473ffffffffffffffffffffffffffffffffffffffff1673ffffffffffffffffffffffffffffffffffffffff166323b872dd89308a6040518463ffffffff1660e01b81526004016118f093929190612650565b602060405180830381600087803b15801561190a57600080fd5b505af115801561191e573d6000803e3d6000fd5b505050506040513d601f19601f820116820180604052506119429190810190612008565b5086600160008a73ffffffffffffffffffffffffffffffffffffffff1673ffffffffffffffffffffffffffffffffffffffff168152602001908152602001600020600082825401925050819055508660008082825401925050819055508773ffffffffffffffffffffffffffffffffffffffff16600073ffffffffffffffffffffffffffffffffffffffff167fddf252ad1be2c89b69c2b068fc378daa952ba7f163c4a11628f55a4df523b3ef896040516119fd91906129b9565b60405180910390a3600860009054906101000a900473ffffffffffffffffffffffffffffffffffffffff1673ffffffffffffffffffffffffffffffffffffffff1663095ea7b3600560009054906101000a900473ffffffffffffffffffffffffffffffffffffffff16896040518363ffffffff1660e01b8152600401611a849291906126e8565b600060405180830381600087803b158015611a9e57600080fd5b505af1158015611ab2573d6000803e3d6000fd5b50505050600660009054906101000a900473ffffffffffffffffffffffffffffffffffffffff1673ffffffffffffffffffffffffffffffffffffffff1663a0712d68886040518263ffffffff1660e01b8152600401611b1191906129b9565b602060405180830381600087803b158015611b2b57600080fd5b505af1158015611b3f573d6000803e3d6000fd5b505050506040513d601f19601f82011682018060405250611b639190810190612031565b5060019250505095945050505050565b600460009054906101000a900473ffffffffffffffffffffffffffffffffffffffff1681565b6000806060600a60009054906101000a900473ffffffffffffffffffffffffffffffffffffffff1673ffffffffffffffffffffffffffffffffffffffff1684805190602001208a8a8a8a8a604051602401611bf8959493929190612711565b604051602081830303815290604052907bffffffffffffffffffffffffffffffffffffffffffffffffffffffff19166020820180517bffffffffffffffffffffffffffffffffffffffffffffffffffffffff8381831617835250505050604051611c62919061257e565b600060405180830381855af49150503d8060008114611c9d576040519150601f19603f3d011682016040523d82523d6000602084013e611ca2565b606091505b509150915081611cb157600080fd5b80806020019051611cc59190810190612008565b925050509695505050505050565b600081359050611ce281612ad9565b92915050565b600081359050611cf781612af0565b92915050565b600081519050611d0c81612af0565b92915050565b600081359050611d2181612b07565b92915050565b600081359050611d3681612b1e565b92915050565b600081519050611d4b81612b1e565b92915050565b600081359050611d6081612b35565b92915050565b600060208284031215611d7857600080fd5b6000611d8684828501611cd3565b91505092915050565b60008060408385031215611da257600080fd5b6000611db085828601611cd3565b9250506020611dc185828601611cd3565b9150509250929050565b600080600060608486031215611de057600080fd5b6000611dee86828701611cd3565b9350506020611dff86828701611cd3565b9250506040611e1086828701611d27565b9150509250925092565b60008060008060008060c08789031215611e3357600080fd5b6000611e4189828a01611cd3565b9650506020611e5289828a01611cd3565b9550506040611e6389828a01611d27565b9450506060611e7489828a01611d12565b9350506080611e8589828a01611d12565b92505060a0611e9689828a01611d51565b9150509295509295509295565b600080600080600080600080610100898b031215611ec057600080fd5b6000611ece8b828c01611cd3565b9850506020611edf8b828c01611cd3565b9750506040611ef08b828c01611d27565b9650506060611f018b828c01611d27565b9550506080611f128b828c01611ce8565b94505060a0611f238b828c01611d51565b93505060c0611f348b828c01611d12565b92505060e0611f458b828c01611d12565b9150509295985092959890939650565b60008060408385031215611f6857600080fd5b6000611f7685828601611cd3565b9250506020611f8785828601611d27565b9150509250929050565b600080600080600060a08688031215611fa957600080fd5b6000611fb788828901611cd3565b9550506020611fc888828901611d27565b9450506040611fd988828901611d12565b9350506060611fea88828901611d12565b9250506080611ffb88828901611d51565b9150509295509295909350565b60006020828403121561201a57600080fd5b600061202884828501611cfd565b91505092915050565b60006020828403121561204357600080fd5b600061205184828501611d3c565b91505092915050565b61206381612a2c565b82525050565b61207281612a3e565b82525050565b61208181612a4a565b82525050565b61209861209382612a4a565b612abe565b82525050565b60006120a9826129ef565b6120b38185612a05565b93506120c3818560208601612a8b565b80840191505092915050565b60006120da826129fa565b6120e48185612a10565b93506120f4818560208601612a8b565b6120fd81612ac8565b840191505092915050565b6000612115601283612a10565b91507f4461692f7065726d69742d6578706972656400000000000000000000000000006000830152602082019050919050565b6000612155602583612a21565b91507f4465706f736974286164647265737320686f6c6465722c75696e74323536207660008301527f616c7565290000000000000000000000000000000000000000000000000000006020830152602582019050919050565b60006121bb600283612a21565b91507f19010000000000000000000000000000000000000000000000000000000000006000830152600282019050919050565b60006121fb601f83612a10565b91507f526573747269637465642041636365737320746f2041646d696e204f6e6c79006000830152602082019050919050565b600061223b601283612a10565b91507f496e73756666696369656e742046756e647300000000000000000000000000006000830152602082019050919050565b600061227b601183612a10565b91507f4461692f696e76616c69642d6e6f6e63650000000000000000000000000000006000830152602082019050919050565b60006122bb600a83612a10565b91507f41646d696e204f6e6c79000000000000000000000000000000000000000000006000830152602082019050919050565b60006122fb601583612a10565b91507f4461692f696e76616c69642d616464726573732d3000000000000000000000006000830152602082019050919050565b600061233b601783612a10565b91507f506f7563682f696e76616c69642d616464726573732d300000000000000000006000830152602082019050919050565b600061237b600e83612a21565b91507f5f7370697450726f6669747328290000000000000000000000000000000000006000830152600e82019050919050565b60006123bb605283612a21565b91507f5065726d6974286164647265737320686f6c6465722c6164647265737320737060008301527f656e6465722c75696e74323536206e6f6e63652c75696e74323536206578706960208301527f72792c626f6f6c206973416c6c6f7765642900000000000000000000000000006040830152605282019050919050565b6000612447600f83612a21565b91507f5f636865636b50726f66697473282900000000000000000000000000000000006000830152600f82019050919050565b6000612487603783612a21565b91507f7472616e7361637428616464726573732c616464726573732c75696e7432353660008301527f2c627974657333322c627974657333322c75696e7438290000000000000000006020830152603782019050919050565b60006124ed601483612a10565b91507f506f7563682f696e76616c69642d7065726d69740000000000000000000000006000830152602082019050919050565b600061252d601283612a10565b91507f4461692f696e76616c69642d7065726d697400000000000000000000000000006000830152602082019050919050565b61256981612a74565b82525050565b61257881612a7e565b82525050565b600061258a828461209e565b915081905092915050565b60006125a082612148565b9150819050919050565b60006125b5826121ae565b91506125c18285612087565b6020820191506125d18284612087565b6020820191508190509392505050565b60006125ec8261236e565b9150819050919050565b6000612601826123ae565b9150819050919050565b60006126168261243a565b9150819050919050565b600061262b8261247a565b9150819050919050565b600060208201905061264a600083018461205a565b92915050565b6000606082019050612665600083018661205a565b612672602083018561205a565b61267f6040830184612560565b949350505050565b600060c08201905061269c600083018961205a565b6126a9602083018861205a565b6126b66040830187612560565b6126c36060830186612078565b6126d06080830185612078565b6126dd60a083018461256f565b979650505050505050565b60006040820190506126fd600083018561205a565b61270a6020830184612560565b9392505050565b600060a082019050612726600083018861205a565b6127336020830187612560565b6127406040830186612078565b61274d6060830185612078565b61275a608083018461256f565b9695505050505050565b60006020820190506127796000830184612069565b92915050565b60006020820190506127946000830184612078565b92915050565b600060c0820190506127af6000830189612078565b6127bc602083018861205a565b6127c9604083018761205a565b6127d66060830186612560565b6127e36080830185612560565b6127f060a0830184612069565b979650505050505050565b60006060820190506128106000830186612078565b61281d602083018561205a565b61282a6040830184612560565b949350505050565b60006080820190506128476000830187612078565b612854602083018661256f565b6128616040830185612078565b61286e6060830184612078565b95945050505050565b6000602082019050818103600083015261289181846120cf565b905092915050565b600060208201905081810360008301526128b281612108565b9050919050565b600060208201905081810360008301526128d2816121ee565b9050919050565b600060208201905081810360008301526128f28161222e565b9050919050565b600060208201905081810360008301526129128161226e565b9050919050565b60006020820190508181036000830152612932816122ae565b9050919050565b60006020820190508181036000830152612952816122ee565b9050919050565b600060208201905081810360008301526129728161232e565b9050919050565b60006020820190508181036000830152612992816124e0565b9050919050565b600060208201905081810360008301526129b281612520565b9050919050565b60006020820190506129ce6000830184612560565b92915050565b60006020820190506129e9600083018461256f565b92915050565b600081519050919050565b600081519050919050565b600081905092915050565b600082825260208201905092915050565b600081905092915050565b6000612a3782612a54565b9050919050565b60008115159050919050565b6000819050919050565b600073ffffffffffffffffffffffffffffffffffffffff82169050919050565b6000819050919050565b600060ff82169050919050565b60005b83811015612aa9578082015181840152602081019050612a8e565b83811115612ab8576000848401525b50505050565b6000819050919050565b6000601f19601f8301169050919050565b612ae281612a2c565b8114612aed57600080fd5b50565b612af981612a3e565b8114612b0457600080fd5b50565b612b1081612a4a565b8114612b1b57600080fd5b50565b612b2781612a74565b8114612b3257600080fd5b50565b612b3e81612a7e565b8114612b4957600080fd5b5056fe776974686472617728616464726573732c75696e743235362c627974657333322c627974657333322c75696e7438a365627a7a723158208ebf15335960ff618fd60886c074a2a528c564c23e2b251ff4319ad80bdbfb656c6578706572696d656e74616cf564736f6c63430005100040",
  "source": "pragma solidity >=0.5.0;\r\npragma experimental ABIEncoderV2;\r\n\r\nimport \"./TokenInterface.sol\";\r\nimport \"./cTokenInterface.sol\";\r\nimport \"./PTokenInterface.sol\";\r\n\r\ncontract PouchToken is PTokenInterface {\r\n    uint256 public totalSupply;\r\n    mapping(address => uint256) public balances;\r\n    mapping(address => mapping(address => uint256)) public allowed;\r\n    bytes32 public DOMAIN_SEPARATOR;\r\n    address public admin;\r\n    address cDaiAddress = 0xe7bc397DBd069fC7d0109C0636d06888bb50668c;\r\n    cTokenInterface cDai = cTokenInterface(cDaiAddress);\r\n    address daiAddress = 0x4F96Fe3b7A6Cf9725f59d353F723c1bDb64CA6Aa;\r\n    TokenInterface daiToken = TokenInterface(daiAddress);\r\n    bytes32 public constant DEPOSIT_TYPEHASH = keccak256(\r\n        \"Deposit(address holder,uint256 value)\"\r\n    );\r\n\r\n    mapping(address => uint256) public nonces;\r\n    bytes32 public constant PERMIT_TYPEHASH = keccak256(\r\n        \"Permit(address holder,address spender,uint256 nonce,uint256 expiry,bool isAllowed)\"\r\n    );\r\n    address public ImplementationAddress;\r\n    uint256 private constant MAX_UINT256 = uint256(-1);\r\n\r\n    // --- ERC20 Data ---\r\n    string public constant name = \"Pouch Token\";\r\n    string public constant version = \"1\";\r\n    uint8 public constant decimals = 18;\r\n\r\n    // ** ERC-20 Standard Functions **\r\n\r\n    function transfer(address _to, uint256 _value)\r\n        external\r\n        returns (bool success)\r\n    {\r\n        require(balances[msg.sender] >= _value);\r\n        balances[msg.sender] -= _value;\r\n        balances[_to] += _value;\r\n        emit Transfer(msg.sender, _to, _value);\r\n        return true;\r\n    }\r\n\r\n    function transferFrom(address _from, address _to, uint256 _value)\r\n        external\r\n        returns (bool success)\r\n    {\r\n        uint256 allowance = allowed[_from][msg.sender];\r\n        require(balances[_from] >= _value && allowance >= _value);\r\n        balances[_to] += _value;\r\n        balances[_from] -= _value;\r\n        if (allowance < MAX_UINT256) {\r\n            allowed[_from][msg.sender] -= _value;\r\n        }\r\n        emit Transfer(_from, _to, _value);\r\n        return true;\r\n    }\r\n\r\n    function balanceOf(address _owner) external view returns (uint256 balance) {\r\n        return balances[_owner];\r\n    }\r\n\r\n    function approve(address _spender, uint256 _value)\r\n        external\r\n        returns (bool success)\r\n    {\r\n        allowed[msg.sender][_spender] = _value;\r\n        emit Approval(msg.sender, _spender, _value);\r\n        return true;\r\n    }\r\n\r\n    function allowance(address _owner, address _spender)\r\n        external\r\n        view\r\n        returns (uint256 remaining)\r\n    {\r\n        return allowed[_owner][_spender];\r\n    }\r\n\r\n    // --- Approve by signature ---\r\n    function permitted(\r\n        address holder,\r\n        address spender,\r\n        uint256 nonce,\r\n        uint256 expiry,\r\n        bool isAllowed,\r\n        uint8 v,\r\n        bytes32 r,\r\n        bytes32 s\r\n    ) public {\r\n        bytes32 digest = keccak256(\r\n            abi.encodePacked(\r\n                \"\\x19\\x01\",\r\n                DOMAIN_SEPARATOR,\r\n                keccak256(\r\n                    abi.encode(\r\n                        PERMIT_TYPEHASH,\r\n                        holder,\r\n                        spender,\r\n                        nonce,\r\n                        expiry,\r\n                        isAllowed\r\n                    )\r\n                )\r\n            )\r\n        );\r\n\r\n        require(holder != address(0), \"Dai/invalid-address-0\");\r\n        require(holder == ecrecover(digest, v, r, s), \"Dai/invalid-permit\");\r\n        require(expiry == 0 || now <= expiry, \"Dai/permit-expired\");\r\n        require(nonce == nonces[holder]++, \"Dai/invalid-nonce\");\r\n        uint256 wad = isAllowed ? uint256(-1) : 0;\r\n        allowed[holder][spender] = wad;\r\n        emit Approval(holder, spender, wad);\r\n    }\r\n\r\n    function supplyOf() external view returns (uint256 balance) {\r\n        return totalSupply;\r\n    }\r\n\r\n}\r\n\r\n//  ** Inheritance of Pouch Token to Make Delegate Calls to implementation Contract. **\r\n\r\ncontract PouchDelegate is PouchToken {\r\n    constructor(uint256 _chainId) public {\r\n        DOMAIN_SEPARATOR = keccak256(\r\n            abi.encode(\r\n                keccak256(\r\n                    \"EIP712Domain(string name,string version,uint256 chainId,address verifyingContract)\"\r\n                ),\r\n                keccak256(bytes(name)),\r\n                keccak256(bytes(version)),\r\n                _chainId,\r\n                address(this)\r\n            )\r\n        );\r\n\r\n        admin = msg.sender;\r\n    }\r\n\r\n    // ** Internal Functions **\r\n\r\n    modifier adminOnly() {\r\n        require(msg.sender == admin, \"Restricted Access to Admin Only\");\r\n        _;\r\n    }\r\n\r\n    // ** Update Implementation Address **\r\n    function updateLogic(address _newImplemenationAddress) external adminOnly {\r\n        require(msg.sender == admin, \"Admin Only\");\r\n        ImplementationAddress = _newImplemenationAddress;\r\n    }\r\n\r\n    // ** Delegate Calls **\r\n\r\n    // Internal Delegate Function **\r\n    function _ImplementDelegationCore(\r\n        address _holder,\r\n        uint256 _value,\r\n        bytes32 _r,\r\n        bytes32 _s,\r\n        uint8 _v,\r\n        bytes memory logic\r\n    ) internal returns (bool) {\r\n        (bool status, bytes memory returnedData) = ImplementationAddress\r\n            .delegatecall(\r\n            abi.encodeWithSelector(\r\n                bytes4(keccak256(logic)),\r\n                _holder,\r\n                _value,\r\n                _r,\r\n                _s,\r\n                _v\r\n            )\r\n        );\r\n        require(status);\r\n        return abi.decode(returnedData, (bool));\r\n    }\r\n\r\n    // function deposit(address holder,\r\n    //         uint256 value,\r\n    //         bytes32 r,\r\n    //         bytes32 s,\r\n    //         uint8 v) public returns (bool){\r\n    //           return _ImplementDelegationCore(holder,value,r,s,v, \"deposit(address,uint256,bytes32,bytes32,uint8\");\r\n    //     }\r\n\r\n    function deposit(\r\n        address holder,\r\n        uint256 value,\r\n        bytes32 r,\r\n        bytes32 s,\r\n        uint8 v\r\n    ) public returns (bool) {\r\n        bytes32 digest = keccak256(\r\n            abi.encodePacked(\r\n                \"\\x19\\x01\",\r\n                DOMAIN_SEPARATOR,\r\n                keccak256(abi.encode(DEPOSIT_TYPEHASH, holder, value))\r\n            )\r\n        );\r\n\r\n        require(holder != address(0), \"Pouch/invalid-address-0\");\r\n        require(holder == ecrecover(digest, v, r, s), \"Pouch/invalid-permit\");\r\n\r\n        // ** Check for sufficient Funds **\r\n        uint256 userBalance = daiToken.balanceOf(holder);\r\n        require(userBalance >= value, \"Insufficient Funds\");\r\n\r\n        daiToken.transferFrom(holder, address(this), value); // **Transfer User's DAI**\r\n        balances[holder] += value;\r\n        totalSupply += value;\r\n        emit Transfer(address(0), holder, value); // **Mint PCH tokens for the User**\r\n        daiToken.approve(cDaiAddress, value);\r\n        cDai.mint(value); // **Mint cDai  **\r\n        return true;\r\n    }\r\n\r\n    // function deposit(\r\n    // // address holder,\r\n    //         uint256 value\r\n    //         // bytes32 r,\r\n    //         // bytes32 s,\r\n    //         // uint8 v\r\n    //         ) public returns (bool){\r\n    //           (bool status, bytes memory returnedData) = ImplementationAddress.delegatecall(abi.encodeWithSelector(bytes4(keccak256(\"deposit(uint256)\")) ,value));\r\n    //         require(status);\r\n    //         return abi.decode(returnedData,(bool));\r\n    //     }\r\n\r\n    function withdraw(\r\n        address holder,\r\n        uint256 value,\r\n        bytes32 r,\r\n        bytes32 s,\r\n        uint8 v\r\n    ) public returns (bool) {\r\n        return\r\n            _ImplementDelegationCore(\r\n                holder,\r\n                value,\r\n                r,\r\n                s,\r\n                v,\r\n                \"withdraw(address,uint256,bytes32,bytes32,uint8\"\r\n            );\r\n    }\r\n\r\n    function transact(\r\n        address holder,\r\n        address to,\r\n        uint256 value,\r\n        bytes32 r,\r\n        bytes32 s,\r\n        uint8 v\r\n    ) public returns (bool) {\r\n        (bool status, bytes memory returnedData) = ImplementationAddress\r\n            .delegatecall(\r\n            abi.encodeWithSelector(\r\n                bytes4(\r\n                    keccak256(\r\n                        \"transact(address,address,uint256,bytes32,bytes32,uint8)\"\r\n                    )\r\n                ),\r\n                holder,\r\n                to,\r\n                value,\r\n                r,\r\n                s,\r\n                v\r\n            )\r\n        );\r\n        require(status);\r\n        return abi.decode(returnedData, (bool));\r\n    }\r\n\r\n    function checkProfits() public view adminOnly returns (uint256) {\r\n        (bool status, bytes memory returnedData) = ImplementationAddress\r\n            .staticcall(\r\n            abi.encodeWithSelector(bytes4(keccak256(\"_checkProfits()\")))\r\n        );\r\n        require(status);\r\n        return abi.decode(returnedData, (uint256));\r\n    }\r\n\r\n    function spitProfits() public adminOnly returns (bool) {\r\n        (bool status, bytes memory returnedData) = ImplementationAddress\r\n            .delegatecall(\r\n            abi.encodeWithSelector(bytes4(keccak256(\"_spitProfits()\")))\r\n        );\r\n        require(status);\r\n        return abi.decode(returnedData, (bool));\r\n    }\r\n\r\n    /**\r\n     * @notice Delegates execution to an implementation contract\r\n     * @dev It returns to the external caller whatever the implementation returns or forwards reverts\r\n     */\r\n    // fallback() external  {\r\n\r\n    // // delegate all other functions to current implementation\r\n    // (bool status, ) = ImplementationAddress.delegatecall(msg.data);\r\n    // require(status);\r\n\r\n    // }\r\n\r\n}\r\n",
  "sourcePath": "C:\\Users\\Anubhav\\Documents\\ethonline\\contracts\\singleContract.sol",
  "compiler": {
    "name": "solc",
    "version": "0.5.16+commit.9c3226ce.Emscripten.clang"
  },
  "schemaVersion": "3.0.23",
  "updatedAt": "2020-02-21T13:54:52.427Z",
  "devdoc": {
    "methods": {}
  },
  "userdoc": {
    "methods": {}
  }
}