{
  "contractName": "Pouch",
  "abi": [
    {
      "inputs": [
        {
          "internalType": "address",
          "name": "tokenAddress",
          "type": "address"
        }
      ],
      "payable": false,
      "stateMutability": "nonpayable",
      "type": "constructor"
    },
    {
      "anonymous": false,
      "inputs": [
        {
          "indexed": true,
          "internalType": "address",
          "name": "_owner",
          "type": "address"
        },
        {
          "indexed": true,
          "internalType": "address",
          "name": "_spender",
          "type": "address"
        },
        {
          "indexed": false,
          "internalType": "uint256",
          "name": "_value",
          "type": "uint256"
        }
      ],
      "name": "Approval",
      "type": "event"
    },
    {
      "anonymous": false,
      "inputs": [
        {
          "indexed": true,
          "internalType": "address",
          "name": "_from",
          "type": "address"
        },
        {
          "indexed": true,
          "internalType": "address",
          "name": "_to",
          "type": "address"
        },
        {
          "indexed": false,
          "internalType": "uint256",
          "name": "_value",
          "type": "uint256"
        }
      ],
      "name": "Transfer",
      "type": "event"
    },
    {
      "constant": true,
      "inputs": [],
      "name": "DEPOSIT_TYPEHASH",
      "outputs": [
        {
          "internalType": "bytes32",
          "name": "",
          "type": "bytes32"
        }
      ],
      "payable": false,
      "stateMutability": "view",
      "type": "function"
    },
    {
      "constant": true,
      "inputs": [],
      "name": "DOMAIN_SEPARATOR",
      "outputs": [
        {
          "internalType": "bytes32",
          "name": "",
          "type": "bytes32"
        }
      ],
      "payable": false,
      "stateMutability": "view",
      "type": "function"
    },
    {
      "constant": true,
      "inputs": [],
      "name": "ImplementationAddress",
      "outputs": [
        {
          "internalType": "address",
          "name": "",
          "type": "address"
        }
      ],
      "payable": false,
      "stateMutability": "view",
      "type": "function"
    },
    {
      "constant": true,
      "inputs": [],
      "name": "TRANSACT_TYPEHASH",
      "outputs": [
        {
          "internalType": "bytes32",
          "name": "",
          "type": "bytes32"
        }
      ],
      "payable": false,
      "stateMutability": "view",
      "type": "function"
    },
    {
      "constant": true,
      "inputs": [],
      "name": "WITHDRAW_TYPEHASH",
      "outputs": [
        {
          "internalType": "bytes32",
          "name": "",
          "type": "bytes32"
        }
      ],
      "payable": false,
      "stateMutability": "view",
      "type": "function"
    },
    {
      "constant": true,
      "inputs": [],
      "name": "admin",
      "outputs": [
        {
          "internalType": "address",
          "name": "",
          "type": "address"
        }
      ],
      "payable": false,
      "stateMutability": "view",
      "type": "function"
    },
    {
      "constant": true,
      "inputs": [
        {
          "internalType": "address",
          "name": "",
          "type": "address"
        },
        {
          "internalType": "address",
          "name": "",
          "type": "address"
        }
      ],
      "name": "allowed",
      "outputs": [
        {
          "internalType": "uint256",
          "name": "",
          "type": "uint256"
        }
      ],
      "payable": false,
      "stateMutability": "view",
      "type": "function"
    },
    {
      "constant": true,
      "inputs": [
        {
          "internalType": "address",
          "name": "",
          "type": "address"
        }
      ],
      "name": "balances",
      "outputs": [
        {
          "internalType": "uint256",
          "name": "",
          "type": "uint256"
        }
      ],
      "payable": false,
      "stateMutability": "view",
      "type": "function"
    },
    {
      "constant": true,
      "inputs": [],
      "name": "totalSupply",
      "outputs": [
        {
          "internalType": "uint256",
          "name": "",
          "type": "uint256"
        }
      ],
      "payable": false,
      "stateMutability": "view",
      "type": "function"
    },
    {
      "constant": true,
      "inputs": [],
      "name": "getExchangeRate",
      "outputs": [
        {
          "internalType": "uint256",
          "name": "",
          "type": "uint256"
        }
      ],
      "payable": false,
      "stateMutability": "view",
      "type": "function"
    },
    {
      "constant": true,
      "inputs": [],
      "name": "getMySupply",
      "outputs": [
        {
          "internalType": "uint256",
          "name": "",
          "type": "uint256"
        }
      ],
      "payable": false,
      "stateMutability": "view",
      "type": "function"
    },
    {
      "constant": true,
      "inputs": [],
      "name": "checkContractBalance",
      "outputs": [
        {
          "internalType": "uint256",
          "name": "",
          "type": "uint256"
        }
      ],
      "payable": false,
      "stateMutability": "view",
      "type": "function"
    },
    {
      "constant": false,
      "inputs": [
        {
          "internalType": "address",
          "name": "holder",
          "type": "address"
        },
        {
          "internalType": "uint256",
          "name": "value",
          "type": "uint256"
        },
        {
          "internalType": "bytes32",
          "name": "r",
          "type": "bytes32"
        },
        {
          "internalType": "bytes32",
          "name": "s",
          "type": "bytes32"
        },
        {
          "internalType": "uint8",
          "name": "v",
          "type": "uint8"
        }
      ],
      "name": "deposit",
      "outputs": [
        {
          "internalType": "bool",
          "name": "",
          "type": "bool"
        }
      ],
      "payable": false,
      "stateMutability": "nonpayable",
      "type": "function"
    },
    {
      "constant": false,
      "inputs": [],
      "name": "_spitProfits",
      "outputs": [
        {
          "internalType": "bool",
          "name": "",
          "type": "bool"
        }
      ],
      "payable": false,
      "stateMutability": "nonpayable",
      "type": "function"
    },
    {
      "constant": true,
      "inputs": [],
      "name": "_checkProfits",
      "outputs": [
        {
          "internalType": "uint256",
          "name": "",
          "type": "uint256"
        }
      ],
      "payable": false,
      "stateMutability": "view",
      "type": "function"
    }
  ],
  "bytecode": "0x608060405273e7bc397dbd069fc7d0109c0636d06888bb50668c600460006101000a81548173ffffffffffffffffffffffffffffffffffffffff021916908373ffffffffffffffffffffffffffffffffffffffff160217905550600460009054906101000a900473ffffffffffffffffffffffffffffffffffffffff16600560006101000a81548173ffffffffffffffffffffffffffffffffffffffff021916908373ffffffffffffffffffffffffffffffffffffffff160217905550734f96fe3b7a6cf9725f59d353f723c1bdb64ca6aa600660006101000a81548173ffffffffffffffffffffffffffffffffffffffff021916908373ffffffffffffffffffffffffffffffffffffffff160217905550600660009054906101000a900473ffffffffffffffffffffffffffffffffffffffff16600760006101000a81548173ffffffffffffffffffffffffffffffffffffffff021916908373ffffffffffffffffffffffffffffffffffffffff1602179055503480156200018157600080fd5b5060405162001e3438038062001e348339818101604052620001a791908101906200027d565b604051620001b59062000405565b6040518091039020604051620001cb90620003ee565b6040518091039020604051620001e1906200041c565b6040518091039020602a846040516020016200020295949392919062000433565b6040516020818303038152906040528051906020012060098190555080600360006101000a81548173ffffffffffffffffffffffffffffffffffffffff021916908373ffffffffffffffffffffffffffffffffffffffff1602179055505062000514565b6000815190506200027781620004fa565b92915050565b6000602082840312156200029057600080fd5b6000620002a08482850162000266565b91505092915050565b620002b4816200049b565b82525050565b620002c581620004af565b82525050565b620002d681620004e6565b82525050565b6000620002eb60058362000490565b91507f506f7563680000000000000000000000000000000000000000000000000000006000830152600582019050919050565b60006200032d60528362000490565b91507f454950373132446f6d61696e28737472696e67206e616d652c737472696e672060008301527f76657273696f6e2c75696e7432353620636861696e49642c616464726573732060208301527f766572696679696e67436f6e74726163742900000000000000000000000000006040830152605282019050919050565b6000620003bb60018362000490565b91507f31000000000000000000000000000000000000000000000000000000000000006000830152600182019050919050565b6000620003fb82620002dc565b9150819050919050565b600062000412826200031e565b9150819050919050565b60006200042982620003ac565b9150819050919050565b600060a0820190506200044a6000830188620002ba565b620004596020830187620002ba565b620004686040830186620002ba565b620004776060830185620002cb565b620004866080830184620002a9565b9695505050505050565b600081905092915050565b6000620004a882620004b9565b9050919050565b6000819050919050565b600073ffffffffffffffffffffffffffffffffffffffff82169050919050565b600060ff82169050919050565b6000620004f382620004d9565b9050919050565b62000505816200049b565b81146200051157600080fd5b50565b61191080620005246000396000f3fe608060405234801561001057600080fd5b50600436106100f55760003560e01c806361f0cbab11610097578063e6aa216c11610066578063e6aa216c14610268578063e8a667de14610286578063e99f6374146102a4578063f851a440146102d4576100f5565b806361f0cbab146101f057806376c5d7581461020e578063ac8895bc1461022c578063cfb3412a1461024a576100f5565b80633644e515116100d35780633644e5151461016657806348825e941461018457806350312c9e146101a25780635c658165146101c0576100f5565b80630df73116146100fa57806318160ddd1461011857806327e235e314610136575b600080fd5b6101026102f2565b60405161010f91906115fc565b60405180910390f35b610120610309565b60405161012d9190611735565b60405180910390f35b610150600480360361014b9190810190611057565b61030f565b60405161015d9190611735565b60405180910390f35b61016e610327565b60405161017b91906115fc565b60405180910390f35b61018c61032d565b60405161019991906115fc565b60405180910390f35b6101aa610344565b6040516101b79190611735565b60405180910390f35b6101da60048036036101d59190810190611080565b610418565b6040516101e79190611735565b60405180910390f35b6101f861043d565b6040516102059190611735565b60405180910390f35b6102166104e9565b60405161022391906115fc565b60405180910390f35b610234610500565b60405161024191906115e1565b60405180910390f35b6102526105c5565b60405161025f9190611735565b60405180910390f35b6102706107b9565b60405161027d9190611735565b60405180910390f35b61028e610860565b60405161029b919061153d565b60405180910390f35b6102be60048036036102b991908101906110bc565b610886565b6040516102cb91906115e1565b60405180910390f35b6102dc610df3565b6040516102e9919061153d565b60405180910390f35b6040516102fe90611513565b604051809103902081565b60005481565b60016020528060005260406000206000915090505481565b60095481565b604051610339906114c7565b604051809103902081565b6000600560009054906101000a900473ffffffffffffffffffffffffffffffffffffffff1673ffffffffffffffffffffffffffffffffffffffff166370a08231600360009054906101000a900473ffffffffffffffffffffffffffffffffffffffff166040518263ffffffff1660e01b81526004016103c3919061153d565b60206040518083038186803b1580156103db57600080fd5b505afa1580156103ef573d6000803e3d6000fd5b505050506040513d601f19601f82011682018060405250610413919081019061115c565b905090565b6002602052816000526040600020602052806000526040600020600091509150505481565b600080600360009054906101000a900473ffffffffffffffffffffffffffffffffffffffff1690508073ffffffffffffffffffffffffffffffffffffffff1663523a50d06040518163ffffffff1660e01b815260040160206040518083038186803b1580156104ab57600080fd5b505afa1580156104bf573d6000803e3d6000fd5b505050506040513d601f19601f820116820180604052506104e3919081019061115c565b91505090565b6040516104f590611528565b604051809103902081565b60008061050b6105c5565b9050600560009054906101000a900473ffffffffffffffffffffffffffffffffffffffff1673ffffffffffffffffffffffffffffffffffffffff1663a9059cbb33836040518363ffffffff1660e01b815260040161056a929190611558565b602060405180830381600087803b15801561058457600080fd5b505af1158015610598573d6000803e3d6000fd5b505050506040513d601f19601f820116820180604052506105bc9190810190611133565b50600191505090565b6000806105d061043d565b905060006105eb6305f5e10083610e1990919063ffffffff16565b90506000600560009054906101000a900473ffffffffffffffffffffffffffffffffffffffff1673ffffffffffffffffffffffffffffffffffffffff166370a08231600360009054906101000a900473ffffffffffffffffffffffffffffffffffffffff166040518263ffffffff1660e01b815260040161066c919061153d565b60206040518083038186803b15801561068457600080fd5b505afa158015610698573d6000803e3d6000fd5b505050506040513d601f19601f820116820180604052506106bc919081019061115c565b90506000600560009054906101000a900473ffffffffffffffffffffffffffffffffffffffff1673ffffffffffffffffffffffffffffffffffffffff1663182df0f56040518163ffffffff1660e01b815260040160206040518083038186803b15801561072857600080fd5b505afa15801561073c573d6000803e3d6000fd5b505050506040513d601f19601f82011682018060405250610760919081019061115c565b9050600061077c6402540be40083610e8990919063ffffffff16565b905060006107938286610e8990919063ffffffff16565b905060006107aa8286610ed390919063ffffffff16565b90508097505050505050505090565b6000600560009054906101000a900473ffffffffffffffffffffffffffffffffffffffff1673ffffffffffffffffffffffffffffffffffffffff1663182df0f56040518163ffffffff1660e01b815260040160206040518083038186803b15801561082357600080fd5b505afa158015610837573d6000803e3d6000fd5b505050506040513d601f19601f8201168201806040525061085b919081019061115c565b905090565b600860009054906101000a900473ffffffffffffffffffffffffffffffffffffffff1681565b600080600954604051610898906114c7565b604051809103902088886040516020016108b493929190611617565b604051602081830303815290604052805190602001206040516020016108db9291906114dc565b604051602081830303815290604052805190602001209050600073ffffffffffffffffffffffffffffffffffffffff168773ffffffffffffffffffffffffffffffffffffffff161415610963576040517f08c379a000000000000000000000000000000000000000000000000000000000815260040161095a906116d5565b60405180910390fd5b60018184878760405160008152602001604052604051610986949392919061164e565b6020604051602081039080840390855afa1580156109a8573d6000803e3d6000fd5b5050506020604051035173ffffffffffffffffffffffffffffffffffffffff168773ffffffffffffffffffffffffffffffffffffffff1614610a1f576040517f08c379a0000000000000000000000000000000000000000000000000000000008152600401610a1690611715565b60405180910390fd5b6000600760009054906101000a900473ffffffffffffffffffffffffffffffffffffffff1673ffffffffffffffffffffffffffffffffffffffff166370a08231896040518263ffffffff1660e01b8152600401610a7c919061153d565b60206040518083038186803b158015610a9457600080fd5b505afa158015610aa8573d6000803e3d6000fd5b505050506040513d601f19601f82011682018060405250610acc919081019061115c565b905086811015610b11576040517f08c379a0000000000000000000000000000000000000000000000000000000008152600401610b08906116b5565b60405180910390fd5b600760009054906101000a900473ffffffffffffffffffffffffffffffffffffffff1673ffffffffffffffffffffffffffffffffffffffff166323b872dd89308a6040518463ffffffff1660e01b8152600401610b7093929190611581565b602060405180830381600087803b158015610b8a57600080fd5b505af1158015610b9e573d6000803e3d6000fd5b505050506040513d601f19601f82011682018060405250610bc29190810190611133565b5086600160008a73ffffffffffffffffffffffffffffffffffffffff1673ffffffffffffffffffffffffffffffffffffffff168152602001908152602001600020600082825401925050819055508660008082825401925050819055508773ffffffffffffffffffffffffffffffffffffffff16600073ffffffffffffffffffffffffffffffffffffffff167fddf252ad1be2c89b69c2b068fc378daa952ba7f163c4a11628f55a4df523b3ef89604051610c7d9190611735565b60405180910390a3600760009054906101000a900473ffffffffffffffffffffffffffffffffffffffff1673ffffffffffffffffffffffffffffffffffffffff1663095ea7b3600460009054906101000a900473ffffffffffffffffffffffffffffffffffffffff16896040518363ffffffff1660e01b8152600401610d049291906115b8565b600060405180830381600087803b158015610d1e57600080fd5b505af1158015610d32573d6000803e3d6000fd5b50505050600560009054906101000a900473ffffffffffffffffffffffffffffffffffffffff1673ffffffffffffffffffffffffffffffffffffffff1663a0712d68886040518263ffffffff1660e01b8152600401610d919190611735565b602060405180830381600087803b158015610dab57600080fd5b505af1158015610dbf573d6000803e3d6000fd5b505050506040513d601f19601f82011682018060405250610de3919081019061115c565b5060019250505095945050505050565b600360009054906101000a900473ffffffffffffffffffffffffffffffffffffffff1681565b600080831415610e2c5760009050610e83565b6000828402905082848281610e3d57fe5b0414610e7e576040517f08c379a0000000000000000000000000000000000000000000000000000000008152600401610e75906116f5565b60405180910390fd5b809150505b92915050565b6000610ecb83836040518060400160405280601a81526020017f536166654d6174683a206469766973696f6e206279207a65726f000000000000815250610f1d565b905092915050565b6000610f1583836040518060400160405280601e81526020017f536166654d6174683a207375627472616374696f6e206f766572666c6f770000815250610f7e565b905092915050565b60008083118290610f64576040517f08c379a0000000000000000000000000000000000000000000000000000000008152600401610f5b9190611693565b60405180910390fd5b506000838581610f7057fe5b049050809150509392505050565b6000838311158290610fc6576040517f08c379a0000000000000000000000000000000000000000000000000000000008152600401610fbd9190611693565b60405180910390fd5b5060008385039050809150509392505050565b600081359050610fe88161185a565b92915050565b600081519050610ffd81611871565b92915050565b60008135905061101281611888565b92915050565b6000813590506110278161189f565b92915050565b60008151905061103c8161189f565b92915050565b600081359050611051816118b6565b92915050565b60006020828403121561106957600080fd5b600061107784828501610fd9565b91505092915050565b6000806040838503121561109357600080fd5b60006110a185828601610fd9565b92505060206110b285828601610fd9565b9150509250929050565b600080600080600060a086880312156110d457600080fd5b60006110e288828901610fd9565b95505060206110f388828901611018565b945050604061110488828901611003565b935050606061111588828901611003565b925050608061112688828901611042565b9150509295509295909350565b60006020828403121561114557600080fd5b600061115384828501610fee565b91505092915050565b60006020828403121561116e57600080fd5b600061117c8482850161102d565b91505092915050565b61118e816117d6565b82525050565b61119d81611777565b82525050565b6111ac81611789565b82525050565b6111bb81611795565b82525050565b6111d26111cd82611795565b61183f565b82525050565b60006111e382611750565b6111ed818561175b565b93506111fd81856020860161180c565b61120681611849565b840191505092915050565b600061121e60258361176c565b91507f4465706f736974286164647265737320686f6c6465722c75696e74323536207660008301527f616c7565290000000000000000000000000000000000000000000000000000006020830152602582019050919050565b600061128460028361176c565b91507f19010000000000000000000000000000000000000000000000000000000000006000830152600282019050919050565b60006112c460318361176c565b91507f5472616e73616374286164647265737320686f6c6465722c616464726573732060008301527f746f2c75696e743235362076616c7565290000000000000000000000000000006020830152603182019050919050565b600061132a60128361175b565b91507f496e73756666696369656e742046756e647300000000000000000000000000006000830152602082019050919050565b600061136a60268361176c565b91507f5769746864726177286164647265737320686f6c6465722c75696e743235362060008301527f76616c75652900000000000000000000000000000000000000000000000000006020830152602682019050919050565b60006113d060178361175b565b91507f506f7563682f696e76616c69642d616464726573732d300000000000000000006000830152602082019050919050565b600061141060218361175b565b91507f536166654d6174683a206d756c7469706c69636174696f6e206f766572666c6f60008301527f77000000000000000000000000000000000000000000000000000000000000006020830152604082019050919050565b600061147660148361175b565b91507f506f7563682f696e76616c69642d7065726d69740000000000000000000000006000830152602082019050919050565b6114b2816117bf565b82525050565b6114c1816117c9565b82525050565b60006114d282611211565b9150819050919050565b60006114e782611277565b91506114f382856111c1565b60208201915061150382846111c1565b6020820191508190509392505050565b600061151e826112b7565b9150819050919050565b60006115338261135d565b9150819050919050565b60006020820190506115526000830184611194565b92915050565b600060408201905061156d6000830185611185565b61157a60208301846114a9565b9392505050565b60006060820190506115966000830186611194565b6115a36020830185611194565b6115b060408301846114a9565b949350505050565b60006040820190506115cd6000830185611194565b6115da60208301846114a9565b9392505050565b60006020820190506115f660008301846111a3565b92915050565b600060208201905061161160008301846111b2565b92915050565b600060608201905061162c60008301866111b2565b6116396020830185611194565b61164660408301846114a9565b949350505050565b600060808201905061166360008301876111b2565b61167060208301866114b8565b61167d60408301856111b2565b61168a60608301846111b2565b95945050505050565b600060208201905081810360008301526116ad81846111d8565b905092915050565b600060208201905081810360008301526116ce8161131d565b9050919050565b600060208201905081810360008301526116ee816113c3565b9050919050565b6000602082019050818103600083015261170e81611403565b9050919050565b6000602082019050818103600083015261172e81611469565b9050919050565b600060208201905061174a60008301846114a9565b92915050565b600081519050919050565b600082825260208201905092915050565b600081905092915050565b60006117828261179f565b9050919050565b60008115159050919050565b6000819050919050565b600073ffffffffffffffffffffffffffffffffffffffff82169050919050565b6000819050919050565b600060ff82169050919050565b60006117e1826117e8565b9050919050565b60006117f3826117fa565b9050919050565b60006118058261179f565b9050919050565b60005b8381101561182a57808201518184015260208101905061180f565b83811115611839576000848401525b50505050565b6000819050919050565b6000601f19601f8301169050919050565b61186381611777565b811461186e57600080fd5b50565b61187a81611789565b811461188557600080fd5b50565b61189181611795565b811461189c57600080fd5b50565b6118a8816117bf565b81146118b357600080fd5b50565b6118bf816117c9565b81146118ca57600080fd5b5056fea365627a7a72315820b1e6c198de57b78f705a4a5f8c9b6dbf23c52fb406a52d6a6199aadc0173bed16c6578706572696d656e74616cf564736f6c63430005100040",
  "source": "pragma solidity >=0.5.0;\r\npragma experimental ABIEncoderV2;\r\n\r\nimport \"../TokenInterface.sol\";\r\nimport \"../cTokenInterface.sol\";\r\nimport \"../PTokenInterface.sol\";\r\nimport \"../SafeMath.sol\";\r\n\r\ncontract Pouch is PTokenInterface {\r\n    uint256 public totalSupply;\r\n    mapping(address => uint256) public balances;\r\n    mapping(address => mapping(address => uint256)) public allowed;\r\n    address public admin;\r\n    address cDaiAddress = 0xe7bc397DBd069fC7d0109C0636d06888bb50668c;\r\n    cTokenInterface cDai = cTokenInterface(cDaiAddress);\r\n\r\n    address daiAddress = 0x4F96Fe3b7A6Cf9725f59d353F723c1bDb64CA6Aa;\r\n    TokenInterface daiToken = TokenInterface(daiAddress);\r\n\r\n    address public ImplementationAddress;\r\n    bytes32 public DOMAIN_SEPARATOR;\r\n\r\n    bytes32 public constant DEPOSIT_TYPEHASH = keccak256(\r\n        \"Deposit(address holder,uint256 value)\"\r\n    );\r\n    bytes32 public constant WITHDRAW_TYPEHASH = keccak256(\r\n        \"Withdraw(address holder,uint256 value)\"\r\n    );\r\n    bytes32 public constant TRANSACT_TYPEHASH = keccak256(\r\n        \"Transact(address holder,address to,uint256 value)\"\r\n    );\r\n\r\n    constructor(address tokenAddress) public {\r\n        DOMAIN_SEPARATOR = keccak256(\r\n            abi.encode(\r\n                keccak256(\r\n                    \"EIP712Domain(string name,string version,uint256 chainId,address verifyingContract)\"\r\n                ),\r\n                keccak256(\"Pouch\"),\r\n                keccak256(\"1\"),\r\n                42, // kovan chainId\r\n                tokenAddress\r\n            )\r\n        );\r\n        admin = tokenAddress;\r\n    }\r\n\r\n    using SafeMath for uint256;\r\n\r\n    // ** Internal Functions **\r\n\r\n    function _mint(address _to, uint256 _value)\r\n        internal\r\n        returns (bool success)\r\n    {\r\n        balances[_to] += _value;\r\n        totalSupply += _value;\r\n        emit Transfer(address(0), _to, _value);\r\n        return true;\r\n    }\r\n\r\n    //   function _transfer(address _to, uint256 _value)\r\n    //     internal\r\n    //     returns (bool success)\r\n    // {\r\n    //     require(balances[msg.sender] >= _value);\r\n    //     balances[msg.sender] -= _value;\r\n    //     balances[_to] += _value;\r\n    //     emit Transfer(msg.sender, _to, _value);\r\n    //     return true;\r\n    // }\r\n\r\n    function getExchangeRate() public view returns (uint256) {\r\n        return cDai.exchangeRateStored();\r\n    }\r\n\r\n    function getMySupply() public view returns (uint256) {\r\n        TokenInterface pouch = TokenInterface(admin);\r\n        return pouch.supplyOf();\r\n    }\r\n    function _randomReward() internal view returns (uint256) {\r\n        uint256 randomnumber = uint256(\r\n            keccak256(abi.encodePacked(now, msg.sender, block.number))\r\n        ) %\r\n            5;\r\n        return randomnumber.mul(1e18);\r\n    }\r\n\r\n    function checkContractBalance() public view returns (uint256) {\r\n        return cDai.balanceOf(admin);\r\n    }\r\n\r\n    function _transfer(address _from, address _to, uint256 _value)\r\n        internal\r\n        returns (bool success)\r\n    {\r\n        require(balances[_from] >= _value, \"Insufficient Balance\");\r\n        balances[_from] -= _value;\r\n        balances[_to] += _value;\r\n        emit Transfer(_from, _to, _value);\r\n        return true;\r\n    }\r\n\r\n    function deposit(\r\n        address holder,\r\n        uint256 value,\r\n        bytes32 r,\r\n        bytes32 s,\r\n        uint8 v\r\n    ) public returns (bool) {\r\n        bytes32 digest = keccak256(\r\n            abi.encodePacked(\r\n                \"\\x19\\x01\",\r\n                DOMAIN_SEPARATOR,\r\n                keccak256(abi.encode(DEPOSIT_TYPEHASH, holder, value))\r\n            )\r\n        );\r\n\r\n        require(holder != address(0), \"Pouch/invalid-address-0\");\r\n        require(holder == ecrecover(digest, v, r, s), \"Pouch/invalid-permit\");\r\n\r\n        // ** Check for sufficient Funds **\r\n        uint256 userBalance = daiToken.balanceOf(holder);\r\n        require(userBalance >= value, \"Insufficient Funds\");\r\n\r\n        daiToken.transferFrom(holder, address(this), value); // **Transfer User's DAI**\r\n        balances[holder] += value;\r\n        totalSupply += value;\r\n        emit Transfer(address(0), holder, value); // **Mint PCH tokens for the User**\r\n        daiToken.approve(cDaiAddress, value);\r\n        cDai.mint(value); // **Mint cDai  **\r\n        return true;\r\n    }\r\n\r\n    // ** Withdraw DAI**\r\n    //     function withdraw(\r\n    //         address holder,\r\n    //         uint256 value,\r\n    //         bytes32 r,\r\n    //         bytes32 s,\r\n    //         uint8 v\r\n    //     ) public returns (bool){\r\n\r\n    //     require(checkSignature(holder, value, r , s, v, WITHDRAW_TYPEHASH));\r\n\r\n    // //          ** Burn Pouch Token **\r\n    //         _transfer(address(0), value);\r\n    //         totalSupply -= value;\r\n\r\n    //  //         **  Redeem User's DAI from compound and transfer it to user.**\r\n    //         cDai.redeemUnderlying(value);\r\n    //         daiToken.transfer(msg.sender, value);\r\n    //         return true;\r\n    // }\r\n\r\n    //   function transact(\r\n    //   address holder,\r\n    //   address to,\r\n    //   uint256 value,\r\n    //         bytes32 r,\r\n    //         bytes32 s,\r\n    //         uint8 v\r\n    //         ) public returns (bool) {\r\n    //       require(to != address(0));\r\n    //       require(checkSignature(holder , value, r , s, v, TRANSACT_TYPEHASH));\r\n\r\n    //         // ** Transfer Funds **\r\n    //         _transfer(to,value);\r\n\r\n    //         // ** Transfer Rewards,if Any. **\r\n    //         if (value >= 1e19){\r\n    //             uint checkProfitInDai =  _checkProfits().mul(getExchangeRate());\r\n    //             uint  profitInDai = checkProfitInDai.div(1e18);\r\n    //             if(profitInDai >= 1e18){\r\n    //                 uint myReward =  _randomReward();\r\n    //                 cDai.redeemUnderlying(myReward);\r\n    //                 daiToken.transfer(msg.sender, myReward);\r\n    //             return true;\r\n    //             }\r\n    //         }\r\n    //         return true;\r\n    //     }\r\n\r\n    function _spitProfits() public returns (bool) {\r\n        uint256 profit = _checkProfits();\r\n        cDai.transfer(msg.sender, profit);\r\n        return true;\r\n    }\r\n\r\n    function _checkProfits() public view returns (uint256) {\r\n        uint256 contractSupply = getMySupply();\r\n        uint256 adjustedTotalSupply = contractSupply.mul(1e8);\r\n        uint256 ourContractBalance = cDai.balanceOf(admin);\r\n        uint256 cDaiExchangeRate = cDai.exchangeRateStored();\r\n        uint256 cDaiExchangeRateDivided = cDaiExchangeRate.div(1e10);\r\n\r\n        uint256 currentPrice = adjustedTotalSupply.div(cDaiExchangeRateDivided);\r\n        uint256 profit = ourContractBalance.sub(currentPrice);\r\n        return profit;\r\n    }\r\n\r\n}\r\n",
  "sourcePath": "C:\\Users\\Anubhav\\Documents\\ethonline\\contracts\\delegatedepositsuccess\\Pouch.sol",
  "compiler": {
    "name": "solc",
    "version": "0.5.16+commit.9c3226ce.Emscripten.clang"
  },
  "schemaVersion": "3.0.23",
  "updatedAt": "2020-02-21T13:54:52.416Z",
  "devdoc": {
    "methods": {}
  },
  "userdoc": {
    "methods": {}
  }
}